{
  "_format": "hh-sol-artifact-1",
  "contractName": "BasicIssuanceModule",
  "sourceName": "contracts/protocol/modules/BasicIssuanceModule.sol",
  "abi": [
    {
      "inputs": [
        {
          "internalType": "contract IController",
          "name": "_controller",
          "type": "address"
        }
      ],
      "stateMutability": "nonpayable",
      "type": "constructor"
    },
    {
      "anonymous": false,
      "inputs": [
        {
          "indexed": true,
          "internalType": "address",
          "name": "_setToken",
          "type": "address"
        },
        {
          "indexed": true,
          "internalType": "address",
          "name": "_issuer",
          "type": "address"
        },
        {
          "indexed": true,
          "internalType": "address",
          "name": "_to",
          "type": "address"
        },
        {
          "indexed": false,
          "internalType": "address",
          "name": "_hookContract",
          "type": "address"
        },
        {
          "indexed": false,
          "internalType": "uint256",
          "name": "_quantity",
          "type": "uint256"
        }
      ],
      "name": "SetTokenIssued",
      "type": "event"
    },
    {
      "anonymous": false,
      "inputs": [
        {
          "indexed": true,
          "internalType": "address",
          "name": "_setToken",
          "type": "address"
        },
        {
          "indexed": true,
          "internalType": "address",
          "name": "_redeemer",
          "type": "address"
        },
        {
          "indexed": true,
          "internalType": "address",
          "name": "_to",
          "type": "address"
        },
        {
          "indexed": false,
          "internalType": "uint256",
          "name": "_quantity",
          "type": "uint256"
        }
      ],
      "name": "SetTokenRedeemed",
      "type": "event"
    },
    {
      "inputs": [],
      "name": "controller",
      "outputs": [
        {
          "internalType": "contract IController",
          "name": "",
          "type": "address"
        }
      ],
      "stateMutability": "view",
      "type": "function",
      "gas": "0xaeb690"
    },
    {
      "inputs": [
        {
          "internalType": "contract ISetToken",
          "name": "_setToken",
          "type": "address"
        },
        {
          "internalType": "uint256",
          "name": "_quantity",
          "type": "uint256"
        }
      ],
      "name": "getRequiredComponentUnitsForIssue",
      "outputs": [
        {
          "internalType": "address[]",
          "name": "",
          "type": "address[]"
        },
        {
          "internalType": "uint256[]",
          "name": "",
          "type": "uint256[]"
        }
      ],
      "stateMutability": "view",
      "type": "function",
      "gas": "0xaeb690"
    },
    {
      "inputs": [
        {
          "internalType": "contract ISetToken",
          "name": "_setToken",
          "type": "address"
        },
        {
          "internalType": "contract IManagerIssuanceHook",
          "name": "_preIssueHook",
          "type": "address"
        }
      ],
      "name": "initialize",
      "outputs": [],
      "stateMutability": "nonpayable",
      "type": "function",
      "gas": "0xaeb690"
    },
    {
      "inputs": [
        {
          "internalType": "contract ISetToken",
          "name": "_setToken",
          "type": "address"
        },
        {
          "internalType": "uint256",
          "name": "_quantity",
          "type": "uint256"
        },
        {
          "internalType": "address",
          "name": "_to",
          "type": "address"
        }
      ],
      "name": "issue",
      "outputs": [],
      "stateMutability": "nonpayable",
      "type": "function",
      "gas": "0xaeb690"
    },
    {
      "inputs": [
        {
          "internalType": "contract ISetToken",
          "name": "",
          "type": "address"
        }
      ],
      "name": "managerIssuanceHook",
      "outputs": [
        {
          "internalType": "contract IManagerIssuanceHook",
          "name": "",
          "type": "address"
        }
      ],
      "stateMutability": "view",
      "type": "function",
      "gas": "0xaeb690"
    },
    {
      "inputs": [
        {
          "internalType": "contract ISetToken",
          "name": "_setToken",
          "type": "address"
        },
        {
          "internalType": "uint256",
          "name": "_quantity",
          "type": "uint256"
        },
        {
          "internalType": "address",
          "name": "_to",
          "type": "address"
        }
      ],
      "name": "redeem",
      "outputs": [],
      "stateMutability": "nonpayable",
      "type": "function",
      "gas": "0xaeb690"
    },
    {
      "inputs": [],
      "name": "removeModule",
      "outputs": [],
      "stateMutability": "nonpayable",
      "type": "function",
      "gas": "0xaeb690"
    }
  ],
  "bytecode": "0x608060405234801561001057600080fd5b50604051611ba5380380611ba583398101604081905261002f91610058565b600080546001600160a01b0319166001600160a01b039290921691909117905560018055610086565b600060208284031215610069578081fd5b81516001600160a01b038116811461007f578182fd5b9392505050565b611b10806100956000396000f3fe608060405234801561001057600080fd5b506004361061007d5760003560e01c80637a4ffd031161005b5780637a4ffd03146100bd578063847ef08d146100e7578063dfe75335146100ef578063f77c47911461010f5761007d565b8063485cc955146100825780635c833bfd146100975780636d78f47a146100aa575b600080fd5b61009561009036600461146c565b610117565b005b6100956100a53660046114cf565b6101ae565b6100956100b83660046114cf565b610462565b6100d06100cb3660046114a4565b6105e1565b6040516100de929190611606565b60405180910390f35b610095610784565b6101026100fd366004611450565b61079c565b6040516100de9190611585565b6101026107b7565b813361012382826107c6565b8361012d816107f0565b6001600160a01b0385811660008181526002602052604080822080546001600160a01b0319169489169490941790935582516307ff078f60e11b815292519192630ffe0f1e926004808301939282900301818387803b15801561018f57600080fd5b505af11580156101a3573d6000803e3d6000fd5b505050505050505050565b600260015414156101da5760405162461bcd60e51b81526004016101d190611a32565b60405180910390fd5b6002600155826101e9816108b4565b600083116102095760405162461bcd60e51b81526004016101d19061171a565b604051632770a7eb60e21b81526001600160a01b03851690639dc29fac906102379033908790600401611599565b600060405180830381600087803b15801561025157600080fd5b505af1158015610265573d6000803e3d6000fd5b505050506060846001600160a01b03166399d50d5d6040518163ffffffff1660e01b815260040160006040518083038186803b1580156102a457600080fd5b505afa1580156102b8573d6000803e3d6000fd5b505050506040513d6000823e601f3d908101601f191682016040526102e091908101906112f9565b905060005b81518110156104015760008282815181106102fc57fe5b6020026020010151905061032281886001600160a01b03166108d990919063ffffffff16565b1561033f5760405162461bcd60e51b81526004016101d1906117d8565b60006103c5886001600160a01b03166366cb8d2f846040518263ffffffff1660e01b81526004016103709190611585565b60206040518083038186803b15801561038857600080fd5b505afa15801561039c573d6000803e3d6000fd5b505050506040513d601f19601f820116820180604052508101906103c09190611510565b610967565b905060006103d9888363ffffffff61098d16565b90506103f66001600160a01b038a1684898463ffffffff6109be16565b5050506001016102e5565b50826001600160a01b0316336001600160a01b0316866001600160a01b03167f05f8aaada00823525432114f0e904c6f7c0198a5b8f113ee635ff81aaf9566ad8760405161044f9190611a69565b60405180910390a4505060018055505050565b600260015414156104855760405162461bcd60e51b81526004016101d190611a32565b600260015582610494816108b4565b600083116104b45760405162461bcd60e51b81526004016101d190611853565b60006104c285853386610b09565b90506060806104d187876105e1565b909250905060005b825181101561051c576105148382815181106104f157fe5b6020026020010151338a85858151811061050757fe5b6020026020010151610ba7565b6001016104d9565b506040516340c10f1960e01b81526001600160a01b038816906340c10f199061054b9088908a90600401611599565b600060405180830381600087803b15801561056557600080fd5b505af1158015610579573d6000803e3d6000fd5b50505050846001600160a01b0316336001600160a01b0316886001600160a01b03167fc07f1e2fe31c4d90eae81f76d263d7995aac043a99d6ee6de9c0506047f541c2868a6040516105cc929190611599565b60405180910390a45050600180555050505050565b606080836105ee816108b4565b6060856001600160a01b03166399d50d5d6040518163ffffffff1660e01b815260040160006040518083038186803b15801561062957600080fd5b505afa15801561063d573d6000803e3d6000fd5b505050506040513d6000823e601f3d908101601f1916820160405261066591908101906112f9565b90506060815167ffffffffffffffff8111801561068157600080fd5b506040519080825280602002602001820160405280156106ab578160200160208202803683370190505b50905060005b8251811015610777576106e98382815181106106c957fe5b6020026020010151896001600160a01b03166108d990919063ffffffff16565b156107065760405162461bcd60e51b81526004016101d1906117d8565b6107588761074c8a6001600160a01b03166366cb8d2f87868151811061072857fe5b60200260200101516040518263ffffffff1660e01b81526004016103709190611585565b9063ffffffff610bb316565b82828151811061076457fe5b60209081029190910101526001016106b1565b5090969095509350505050565b60405162461bcd60e51b81526004016101d190611788565b6002602052600090815260409020546001600160a01b031681565b6000546001600160a01b031681565b6107d08282610c0a565b6107ec5760405162461bcd60e51b81526004016101d1906119b1565b5050565b600054604051631d3af8fb60e21b81526001600160a01b03909116906374ebe3ec90610820908490600401611585565b60206040518083038186803b15801561083857600080fd5b505afa15801561084c573d6000803e3d6000fd5b505050506040513d601f19601f8201168201806040525081019061087091906113a4565b61088c5760405162461bcd60e51b81526004016101d19061196e565b61089581610c98565b6108b15760405162461bcd60e51b81526004016101d19061181c565b50565b6108bd81610d17565b6108b15760405162461bcd60e51b81526004016101d1906116d2565b600080836001600160a01b031663a7bdad03846040518263ffffffff1660e01b81526004016109089190611585565b60006040518083038186803b15801561092057600080fd5b505afa158015610934573d6000803e3d6000fd5b505050506040513d6000823e601f3d908101601f1916820160405261095c91908101906112f9565b511190505b92915050565b6000808212156109895760405162461bcd60e51b81526004016101d19061188a565b5090565b60006109b7670de0b6b3a76400006109ab858563ffffffff610dcb16565b9063ffffffff610e0516565b9392505050565b8015610b03576040516370a0823160e01b81526000906001600160a01b038516906370a08231906109f3908890600401611585565b60206040518083038186803b158015610a0b57600080fd5b505afa158015610a1f573d6000803e3d6000fd5b505050506040513d601f19601f82011682018060405250810190610a439190611510565b9050610a5185858585610e47565b6040516370a0823160e01b81526000906001600160a01b038616906370a0823190610a80908990600401611585565b60206040518083038186803b158015610a9857600080fd5b505afa158015610aac573d6000803e3d6000fd5b505050506040513d601f19601f82011682018060405250810190610ad09190611510565b9050610ae2828463ffffffff610f1416565b8114610b005760405162461bcd60e51b81526004016101d190611900565b50505b50505050565b6001600160a01b038085166000908152600260205260408120549091168015610b995760405163a045808360e01b81526001600160a01b0382169063a045808390610b5e908990899089908990600401611694565b600060405180830381600087803b158015610b7857600080fd5b505af1158015610b8c573d6000803e3d6000fd5b5050505080915050610b9f565b60009150505b949350505050565b610b0384848484610f56565b6000821580610bc0575081155b15610bcd57506000610961565b6109b76001610bfe670de0b6b3a76400006109ab83610bf2898963ffffffff610dcb16565b9063ffffffff610f1416565b9063ffffffff61107a16565b6000816001600160a01b0316836001600160a01b031663481c6a756040518163ffffffff1660e01b815260040160206040518083038186803b158015610c4f57600080fd5b505afa158015610c63573d6000803e3d6000fd5b505050506040513d601f19601f82011682018060405250810190610c8791906112dd565b6001600160a01b0316149392505050565b6040516353bae5f760e01b81526000906001600160a01b038316906353bae5f790610cc7903090600401611585565b60206040518083038186803b158015610cdf57600080fd5b505afa158015610cf3573d6000803e3d6000fd5b505050506040513d601f19601f8201168201806040525081019061096191906113a4565b60008054604051631d3af8fb60e21b81526001600160a01b03909116906374ebe3ec90610d48908590600401611585565b60206040518083038186803b158015610d6057600080fd5b505afa158015610d74573d6000803e3d6000fd5b505050506040513d601f19601f82011682018060405250810190610d9891906113a4565b801561096157506040516335fc6c9f60e21b81526001600160a01b0383169063d7f1b27c90610cc7903090600401611585565b600082610dda57506000610961565b82820282848281610de757fe5b04146109b75760405162461bcd60e51b81526004016101d1906118bf565b60006109b783836040518060400160405280601a81526020017f536166654d6174683a206469766973696f6e206279207a65726f00000000000081525061109f565b8015610b035760608282604051602401610e62929190611599565b60408051601f198184030181529181526020820180516001600160e01b031663a9059cbb60e01b179052516347b7819960e11b81529091506001600160a01b03861690638f6f033290610ebe90879060009086906004016115d6565b600060405180830381600087803b158015610ed857600080fd5b505af1158015610eec573d6000803e3d6000fd5b505050506040513d6000823e601f3d908101601f19168201604052610b0091908101906113c4565b60006109b783836040518060400160405280601e81526020017f536166654d6174683a207375627472616374696f6e206f766572666c6f7700008152506110d6565b8015610b03576040516370a0823160e01b81526000906001600160a01b038616906370a0823190610f8b908690600401611585565b60206040518083038186803b158015610fa357600080fd5b505afa158015610fb7573d6000803e3d6000fd5b505050506040513d601f19601f82011682018060405250810190610fdb9190611510565b9050610fe985858585611102565b6040516370a0823160e01b81526000906001600160a01b038716906370a0823190611018908790600401611585565b60206040518083038186803b15801561103057600080fd5b505afa158015611044573d6000803e3d6000fd5b505050506040513d601f19601f820116820180604052508101906110689190611510565b9050610ae2828463ffffffff61107a16565b6000828201838110156109b75760405162461bcd60e51b81526004016101d190611751565b600081836110c05760405162461bcd60e51b81526004016101d191906116bf565b5060008385816110cc57fe5b0495945050505050565b600081848411156110fa5760405162461bcd60e51b81526004016101d191906116bf565b505050900390565b610b03846323b872dd60e01b858585604051602401611123939291906115b2565b60408051601f198184030181529190526020810180516001600160e01b03166001600160e01b03199093169290921790915260606111aa826040518060400160405280602081526020017f5361666545524332303a206c6f772d6c6576656c2063616c6c206661696c6564815250856001600160a01b03166111e99092919063ffffffff16565b8051909150156111e457808060200190518101906111c891906113a4565b6111e45760405162461bcd60e51b81526004016101d1906119e8565b505050565b6060610b9f8484600085856111fd85611293565b6112195760405162461bcd60e51b81526004016101d190611937565b60006060866001600160a01b031685876040516112369190611569565b60006040518083038185875af1925050503d8060008114611273576040519150601f19603f3d011682016040523d82523d6000602084013e611278565b606091505b5091509150611288828286611299565b979650505050505050565b3b151590565b606083156112a85750816109b7565b8251156112b85782518084602001fd5b8160405162461bcd60e51b81526004016101d191906116bf565b805161096181611ac5565b6000602082840312156112ee578081fd5b81516109b781611ac5565b6000602080838503121561130b578182fd5b825167ffffffffffffffff80821115611322578384fd5b81850186601f820112611333578485fd5b8051925081831115611343578485fd5b8383029150611353848301611a72565b8381528481019082860184840187018a101561136d578788fd5b8794505b85851015611397576113838a826112d2565b835260019490940193918601918601611371565b5098975050505050505050565b6000602082840312156113b5578081fd5b815180151581146109b7578182fd5b6000602082840312156113d5578081fd5b815167ffffffffffffffff808211156113ec578283fd5b81840185601f8201126113fd578384fd5b805192508183111561140d578384fd5b611420601f8401601f1916602001611a72565b9150828252856020848301011115611436578384fd5b611447836020840160208401611a99565b50949350505050565b600060208284031215611461578081fd5b81356109b781611ac5565b6000806040838503121561147e578081fd5b823561148981611ac5565b9150602083013561149981611ac5565b809150509250929050565b600080604083850312156114b6578182fd5b82356114c181611ac5565b946020939093013593505050565b6000806000606084860312156114e3578081fd5b83356114ee81611ac5565b925060208401359150604084013561150581611ac5565b809150509250925092565b600060208284031215611521578081fd5b5051919050565b815260200190565b6001600160a01b03169052565b60008151808452611555816020860160208601611a99565b601f01601f19169290920160200192915050565b6000825161157b818460208701611a99565b9190910192915050565b6001600160a01b0391909116815260200190565b6001600160a01b03929092168252602082015260400190565b6001600160a01b039384168152919092166020820152604081019190915260600190565b600060018060a01b0385168252836020830152606060408301526115fd606083018461153d565b95945050505050565b604080825283519082018190526000906020906060840190828701845b8281101561164657611636848351611530565b9284019290840190600101611623565b5050508381038285015280855161165d8184611a69565b91508387019250845b8181101561168757611679838551611528565b938501939250600101611666565b5090979650505050505050565b6001600160a01b03948516815260208101939093529083166040830152909116606082015260800190565b6000602082526109b7602083018461153d565b60208082526028908201527f4d75737420626520612076616c696420616e6420696e697469616c697a65642060408201526729b2ba2a37b5b2b760c11b606082015260800190565b6020808252601b908201527f52656465656d207175616e74697479206d757374206265203e20300000000000604082015260600190565b6020808252601b908201527f536166654d6174683a206164646974696f6e206f766572666c6f770000000000604082015260600190565b60208082526030908201527f54686520426173696349737375616e63654d6f64756c65206d6f64756c65206360408201526f185b9b9bdd081899481c995b5bdd995960821b606082015260800190565b60208082526024908201527f4f6e6c792064656661756c7420706f736974696f6e732061726520737570706f6040820152631c9d195960e21b606082015260800190565b6020808252601e908201527f4d7573742062652070656e64696e6720696e697469616c697a6174696f6e0000604082015260600190565b6020808252601a908201527f4973737565207175616e74697479206d757374206265203e2030000000000000604082015260600190565b6020808252818101527f53616665436173743a2076616c7565206d75737420626520706f736974697665604082015260600190565b60208082526021908201527f536166654d6174683a206d756c7469706c69636174696f6e206f766572666c6f6040820152607760f81b606082015260800190565b6020808252601d908201527f496e76616c696420706f7374207472616e736665722062616c616e6365000000604082015260600190565b6020808252601d908201527f416464726573733a2063616c6c20746f206e6f6e2d636f6e7472616374000000604082015260600190565b60208082526023908201527f4d75737420626520636f6e74726f6c6c65722d656e61626c656420536574546f60408201526235b2b760e91b606082015260800190565b6020808252601c908201527f4d7573742062652074686520536574546f6b656e206d616e6167657200000000604082015260600190565b6020808252602a908201527f5361666545524332303a204552433230206f7065726174696f6e20646964206e6040820152691bdd081cdd58d8d9595960b21b606082015260800190565b6020808252601f908201527f5265656e7472616e637947756172643a207265656e7472616e742063616c6c00604082015260600190565b90815260200190565b60405181810167ffffffffffffffff81118282101715611a9157600080fd5b604052919050565b60005b83811015611ab4578181015183820152602001611a9c565b83811115610b035750506000910152565b6001600160a01b03811681146108b157600080fdfea2646970667358221220298f6490caaf843ddf4778a9d7ece701b9980f846e44bf27e9e7df7412a057ed64736f6c634300060a0033",
  "linkReferences": {},
  "deployedLinkReferences": {}
}