{
  "_format": "hh-sol-artifact-1",
  "contractName": "NavIssuanceModule",
  "sourceName": "contracts/protocol/modules/NAVIssuanceModule.sol",
  "abi": [
    {
      "inputs": [
        {
          "internalType": "contract IController",
          "name": "_controller",
          "type": "address"
        },
        {
          "internalType": "contract IWETH",
          "name": "_weth",
          "type": "address"
        }
      ],
      "stateMutability": "nonpayable",
      "type": "constructor"
    },
    {
      "anonymous": false,
      "inputs": [
        {
          "indexed": true,
          "internalType": "contract ISetToken",
          "name": "_setToken",
          "type": "address"
        },
        {
          "indexed": false,
          "internalType": "address",
          "name": "_feeRecipient",
          "type": "address"
        }
      ],
      "name": "FeeRecipientEdited",
      "type": "event"
    },
    {
      "anonymous": false,
      "inputs": [
        {
          "indexed": true,
          "internalType": "contract ISetToken",
          "name": "_setToken",
          "type": "address"
        },
        {
          "indexed": false,
          "internalType": "uint256",
          "name": "_newManagerFee",
          "type": "uint256"
        },
        {
          "indexed": false,
          "internalType": "uint256",
          "name": "_index",
          "type": "uint256"
        }
      ],
      "name": "ManagerFeeEdited",
      "type": "event"
    },
    {
      "anonymous": false,
      "inputs": [
        {
          "indexed": true,
          "internalType": "contract ISetToken",
          "name": "_setToken",
          "type": "address"
        },
        {
          "indexed": false,
          "internalType": "uint256",
          "name": "_newPremium",
          "type": "uint256"
        }
      ],
      "name": "PremiumEdited",
      "type": "event"
    },
    {
      "anonymous": false,
      "inputs": [
        {
          "indexed": true,
          "internalType": "contract ISetToken",
          "name": "_setToken",
          "type": "address"
        },
        {
          "indexed": false,
          "internalType": "address",
          "name": "_newReserveAsset",
          "type": "address"
        }
      ],
      "name": "ReserveAssetAdded",
      "type": "event"
    },
    {
      "anonymous": false,
      "inputs": [
        {
          "indexed": true,
          "internalType": "contract ISetToken",
          "name": "_setToken",
          "type": "address"
        },
        {
          "indexed": false,
          "internalType": "address",
          "name": "_removedReserveAsset",
          "type": "address"
        }
      ],
      "name": "ReserveAssetRemoved",
      "type": "event"
    },
    {
      "anonymous": false,
      "inputs": [
        {
          "indexed": true,
          "internalType": "contract ISetToken",
          "name": "_setToken",
          "type": "address"
        },
        {
          "indexed": false,
          "internalType": "address",
          "name": "_issuer",
          "type": "address"
        },
        {
          "indexed": false,
          "internalType": "address",
          "name": "_to",
          "type": "address"
        },
        {
          "indexed": false,
          "internalType": "address",
          "name": "_reserveAsset",
          "type": "address"
        },
        {
          "indexed": false,
          "internalType": "address",
          "name": "_hookContract",
          "type": "address"
        },
        {
          "indexed": false,
          "internalType": "uint256",
          "name": "_setTokenQuantity",
          "type": "uint256"
        },
        {
          "indexed": false,
          "internalType": "uint256",
          "name": "_managerFee",
          "type": "uint256"
        },
        {
          "indexed": false,
          "internalType": "uint256",
          "name": "_premium",
          "type": "uint256"
        }
      ],
      "name": "SetTokenNAVIssued",
      "type": "event"
    },
    {
      "anonymous": false,
      "inputs": [
        {
          "indexed": true,
          "internalType": "contract ISetToken",
          "name": "_setToken",
          "type": "address"
        },
        {
          "indexed": false,
          "internalType": "address",
          "name": "_redeemer",
          "type": "address"
        },
        {
          "indexed": false,
          "internalType": "address",
          "name": "_to",
          "type": "address"
        },
        {
          "indexed": false,
          "internalType": "address",
          "name": "_reserveAsset",
          "type": "address"
        },
        {
          "indexed": false,
          "internalType": "address",
          "name": "_hookContract",
          "type": "address"
        },
        {
          "indexed": false,
          "internalType": "uint256",
          "name": "_setTokenQuantity",
          "type": "uint256"
        },
        {
          "indexed": false,
          "internalType": "uint256",
          "name": "_managerFee",
          "type": "uint256"
        },
        {
          "indexed": false,
          "internalType": "uint256",
          "name": "_premium",
          "type": "uint256"
        }
      ],
      "name": "SetTokenNAVRedeemed",
      "type": "event"
    },
    {
      "inputs": [
        {
          "internalType": "contract ISetToken",
          "name": "_setToken",
          "type": "address"
        },
        {
          "internalType": "address",
          "name": "_reserveAsset",
          "type": "address"
        }
      ],
      "name": "addReserveAsset",
      "outputs": [],
      "stateMutability": "nonpayable",
      "type": "function",
      "gas": "0xaeb690"
    },
    {
      "inputs": [],
      "name": "controller",
      "outputs": [
        {
          "internalType": "contract IController",
          "name": "",
          "type": "address"
        }
      ],
      "stateMutability": "view",
      "type": "function",
      "gas": "0xaeb690"
    },
    {
      "inputs": [
        {
          "internalType": "contract ISetToken",
          "name": "_setToken",
          "type": "address"
        },
        {
          "internalType": "address",
          "name": "_managerFeeRecipient",
          "type": "address"
        }
      ],
      "name": "editFeeRecipient",
      "outputs": [],
      "stateMutability": "nonpayable",
      "type": "function",
      "gas": "0xaeb690"
    },
    {
      "inputs": [
        {
          "internalType": "contract ISetToken",
          "name": "_setToken",
          "type": "address"
        },
        {
          "internalType": "uint256",
          "name": "_managerFeePercentage",
          "type": "uint256"
        },
        {
          "internalType": "uint256",
          "name": "_managerFeeIndex",
          "type": "uint256"
        }
      ],
      "name": "editManagerFee",
      "outputs": [],
      "stateMutability": "nonpayable",
      "type": "function",
      "gas": "0xaeb690"
    },
    {
      "inputs": [
        {
          "internalType": "contract ISetToken",
          "name": "_setToken",
          "type": "address"
        },
        {
          "internalType": "uint256",
          "name": "_premiumPercentage",
          "type": "uint256"
        }
      ],
      "name": "editPremium",
      "outputs": [],
      "stateMutability": "nonpayable",
      "type": "function",
      "gas": "0xaeb690"
    },
    {
      "inputs": [
        {
          "internalType": "contract ISetToken",
          "name": "_setToken",
          "type": "address"
        },
        {
          "internalType": "address",
          "name": "_reserveAsset",
          "type": "address"
        },
        {
          "internalType": "uint256",
          "name": "_setTokenQuantity",
          "type": "uint256"
        }
      ],
      "name": "getExpectedReserveRedeemQuantity",
      "outputs": [
        {
          "internalType": "uint256",
          "name": "",
          "type": "uint256"
        }
      ],
      "stateMutability": "view",
      "type": "function",
      "gas": "0xaeb690"
    },
    {
      "inputs": [
        {
          "internalType": "contract ISetToken",
          "name": "_setToken",
          "type": "address"
        },
        {
          "internalType": "address",
          "name": "_reserveAsset",
          "type": "address"
        },
        {
          "internalType": "uint256",
          "name": "_reserveAssetQuantity",
          "type": "uint256"
        }
      ],
      "name": "getExpectedSetTokenIssueQuantity",
      "outputs": [
        {
          "internalType": "uint256",
          "name": "",
          "type": "uint256"
        }
      ],
      "stateMutability": "view",
      "type": "function",
      "gas": "0xaeb690"
    },
    {
      "inputs": [
        {
          "internalType": "contract ISetToken",
          "name": "_setToken",
          "type": "address"
        },
        {
          "internalType": "address",
          "name": "_reserveAsset",
          "type": "address"
        },
        {
          "internalType": "uint256",
          "name": "_reserveAssetQuantity",
          "type": "uint256"
        }
      ],
      "name": "getIssuePremium",
      "outputs": [
        {
          "internalType": "uint256",
          "name": "",
          "type": "uint256"
        }
      ],
      "stateMutability": "view",
      "type": "function",
      "gas": "0xaeb690"
    },
    {
      "inputs": [
        {
          "internalType": "contract ISetToken",
          "name": "_setToken",
          "type": "address"
        },
        {
          "internalType": "uint256",
          "name": "_managerFeeIndex",
          "type": "uint256"
        }
      ],
      "name": "getManagerFee",
      "outputs": [
        {
          "internalType": "uint256",
          "name": "",
          "type": "uint256"
        }
      ],
      "stateMutability": "view",
      "type": "function",
      "gas": "0xaeb690"
    },
    {
      "inputs": [
        {
          "internalType": "contract ISetToken",
          "name": "_setToken",
          "type": "address"
        },
        {
          "internalType": "address",
          "name": "_reserveAsset",
          "type": "address"
        },
        {
          "internalType": "uint256",
          "name": "_setTokenQuantity",
          "type": "uint256"
        }
      ],
      "name": "getRedeemPremium",
      "outputs": [
        {
          "internalType": "uint256",
          "name": "",
          "type": "uint256"
        }
      ],
      "stateMutability": "view",
      "type": "function",
      "gas": "0xaeb690"
    },
    {
      "inputs": [
        {
          "internalType": "contract ISetToken",
          "name": "_setToken",
          "type": "address"
        }
      ],
      "name": "getReserveAssets",
      "outputs": [
        {
          "internalType": "address[]",
          "name": "",
          "type": "address[]"
        }
      ],
      "stateMutability": "view",
      "type": "function",
      "gas": "0xaeb690"
    },
    {
      "inputs": [
        {
          "internalType": "contract ISetToken",
          "name": "_setToken",
          "type": "address"
        },
        {
          "components": [
            {
              "internalType": "contract INAVIssuanceHook",
              "name": "managerIssuanceHook",
              "type": "address"
            },
            {
              "internalType": "contract INAVIssuanceHook",
              "name": "managerRedemptionHook",
              "type": "address"
            },
            {
              "internalType": "address[]",
              "name": "reserveAssets",
              "type": "address[]"
            },
            {
              "internalType": "address",
              "name": "feeRecipient",
              "type": "address"
            },
            {
              "internalType": "uint256[2]",
              "name": "managerFees",
              "type": "uint256[2]"
            },
            {
              "internalType": "uint256",
              "name": "maxManagerFee",
              "type": "uint256"
            },
            {
              "internalType": "uint256",
              "name": "premiumPercentage",
              "type": "uint256"
            },
            {
              "internalType": "uint256",
              "name": "maxPremiumPercentage",
              "type": "uint256"
            },
            {
              "internalType": "uint256",
              "name": "minSetTokenSupply",
              "type": "uint256"
            }
          ],
          "internalType": "struct NavIssuanceModule.NAVIssuanceSettings",
          "name": "_navIssuanceSettings",
          "type": "tuple"
        }
      ],
      "name": "initialize",
      "outputs": [],
      "stateMutability": "nonpayable",
      "type": "function",
      "gas": "0xaeb690"
    },
    {
      "inputs": [
        {
          "internalType": "contract ISetToken",
          "name": "_setToken",
          "type": "address"
        },
        {
          "internalType": "address",
          "name": "_reserveAsset",
          "type": "address"
        },
        {
          "internalType": "uint256",
          "name": "_reserveAssetQuantity",
          "type": "uint256"
        }
      ],
      "name": "isIssueValid",
      "outputs": [
        {
          "internalType": "bool",
          "name": "",
          "type": "bool"
        }
      ],
      "stateMutability": "view",
      "type": "function",
      "gas": "0xaeb690"
    },
    {
      "inputs": [
        {
          "internalType": "contract ISetToken",
          "name": "_setToken",
          "type": "address"
        },
        {
          "internalType": "address",
          "name": "_reserveAsset",
          "type": "address"
        },
        {
          "internalType": "uint256",
          "name": "_setTokenQuantity",
          "type": "uint256"
        }
      ],
      "name": "isRedeemValid",
      "outputs": [
        {
          "internalType": "bool",
          "name": "",
          "type": "bool"
        }
      ],
      "stateMutability": "view",
      "type": "function",
      "gas": "0xaeb690"
    },
    {
      "inputs": [
        {
          "internalType": "contract ISetToken",
          "name": "",
          "type": "address"
        },
        {
          "internalType": "address",
          "name": "",
          "type": "address"
        }
      ],
      "name": "isReserveAsset",
      "outputs": [
        {
          "internalType": "bool",
          "name": "",
          "type": "bool"
        }
      ],
      "stateMutability": "view",
      "type": "function",
      "gas": "0xaeb690"
    },
    {
      "inputs": [
        {
          "internalType": "contract ISetToken",
          "name": "_setToken",
          "type": "address"
        },
        {
          "internalType": "address",
          "name": "_reserveAsset",
          "type": "address"
        },
        {
          "internalType": "uint256",
          "name": "_reserveAssetQuantity",
          "type": "uint256"
        },
        {
          "internalType": "uint256",
          "name": "_minSetTokenReceiveQuantity",
          "type": "uint256"
        },
        {
          "internalType": "address",
          "name": "_to",
          "type": "address"
        }
      ],
      "name": "issue",
      "outputs": [],
      "stateMutability": "nonpayable",
      "type": "function",
      "gas": "0xaeb690"
    },
    {
      "inputs": [
        {
          "internalType": "contract ISetToken",
          "name": "_setToken",
          "type": "address"
        },
        {
          "internalType": "uint256",
          "name": "_minSetTokenReceiveQuantity",
          "type": "uint256"
        },
        {
          "internalType": "address",
          "name": "_to",
          "type": "address"
        }
      ],
      "name": "issueWithEther",
      "outputs": [],
      "stateMutability": "payable",
      "type": "function",
      "gas": "0xaeb690"
    },
    {
      "inputs": [
        {
          "internalType": "contract ISetToken",
          "name": "",
          "type": "address"
        }
      ],
      "name": "navIssuanceSettings",
      "outputs": [
        {
          "internalType": "contract INAVIssuanceHook",
          "name": "managerIssuanceHook",
          "type": "address"
        },
        {
          "internalType": "contract INAVIssuanceHook",
          "name": "managerRedemptionHook",
          "type": "address"
        },
        {
          "internalType": "address",
          "name": "feeRecipient",
          "type": "address"
        },
        {
          "internalType": "uint256",
          "name": "maxManagerFee",
          "type": "uint256"
        },
        {
          "internalType": "uint256",
          "name": "premiumPercentage",
          "type": "uint256"
        },
        {
          "internalType": "uint256",
          "name": "maxPremiumPercentage",
          "type": "uint256"
        },
        {
          "internalType": "uint256",
          "name": "minSetTokenSupply",
          "type": "uint256"
        }
      ],
      "stateMutability": "view",
      "type": "function",
      "gas": "0xaeb690"
    },
    {
      "inputs": [
        {
          "internalType": "contract ISetToken",
          "name": "_setToken",
          "type": "address"
        },
        {
          "internalType": "address",
          "name": "_reserveAsset",
          "type": "address"
        },
        {
          "internalType": "uint256",
          "name": "_setTokenQuantity",
          "type": "uint256"
        },
        {
          "internalType": "uint256",
          "name": "_minReserveReceiveQuantity",
          "type": "uint256"
        },
        {
          "internalType": "address",
          "name": "_to",
          "type": "address"
        }
      ],
      "name": "redeem",
      "outputs": [],
      "stateMutability": "nonpayable",
      "type": "function",
      "gas": "0xaeb690"
    },
    {
      "inputs": [
        {
          "internalType": "contract ISetToken",
          "name": "_setToken",
          "type": "address"
        },
        {
          "internalType": "uint256",
          "name": "_setTokenQuantity",
          "type": "uint256"
        },
        {
          "internalType": "uint256",
          "name": "_minReserveReceiveQuantity",
          "type": "uint256"
        },
        {
          "internalType": "address payable",
          "name": "_to",
          "type": "address"
        }
      ],
      "name": "redeemIntoEther",
      "outputs": [],
      "stateMutability": "nonpayable",
      "type": "function",
      "gas": "0xaeb690"
    },
    {
      "inputs": [],
      "name": "removeModule",
      "outputs": [],
      "stateMutability": "nonpayable",
      "type": "function",
      "gas": "0xaeb690"
    },
    {
      "inputs": [
        {
          "internalType": "contract ISetToken",
          "name": "_setToken",
          "type": "address"
        },
        {
          "internalType": "address",
          "name": "_reserveAsset",
          "type": "address"
        }
      ],
      "name": "removeReserveAsset",
      "outputs": [],
      "stateMutability": "nonpayable",
      "type": "function",
      "gas": "0xaeb690"
    },
    {
      "inputs": [],
      "name": "weth",
      "outputs": [
        {
          "internalType": "contract IWETH",
          "name": "",
          "type": "address"
        }
      ],
      "stateMutability": "view",
      "type": "function",
      "gas": "0xaeb690"
    },
    {
      "stateMutability": "payable",
      "type": "receive"
    }
  ],
  "bytecode": "0x60a06040523480156200001157600080fd5b5060405162004e3538038062004e3583398101604081905262000034916200006f565b600080546001600160a01b0319166001600160a01b0393909316929092179091556001805560601b6001600160601b031916608052620000c6565b6000806040838503121562000082578182fd5b82516200008f81620000ad565b6020840151909250620000a281620000ad565b809150509250929050565b6001600160a01b0381168114620000c357600080fd5b50565b60805160601c614d0b6200012a6000398061047152806104e952806105145280610549528061058b52806108ab52806113ee528061142d52806114d6528061151f52806115c552806115f052806119d75280611a6b5280611bce5250614d0b6000f3fe6080604052600436106101445760003560e01c80637f977948116100b6578063b98b60301161006f578063b98b60301461038c578063d5f8394a146103ac578063df3fa714146103cc578063ee673ac4146103ec578063f529c18a146101fb578063f77c47911461041f5761014b565b80637f977948146102d7578063847ef08d146102f757806391819fb31461030c5780639c5ad2831461032c5780639f6f6ba91461034c578063add7745a1461036c5761014b565b80632f879fa3116101085780632f879fa3146101fb57806330b305f91461021b5780633fc8cef31461023b5780634b79da0a1461025d57806364b2dc7a1461028a5780636ff7f6da146102b75761014b565b806302c619d01461015057806304f1b57114610165578063080b16f81461019b5780630e3af8ad146101bb578063281d0115146101db5761014b565b3661014b57005b600080fd5b61016361015e366004613f72565b610434565b005b34801561017157600080fd5b50610185610180366004613f47565b6105bc565b604051610192919061427d565b60405180910390f35b3480156101a757600080fd5b506101636101b6366004613d7a565b6105ef565b3480156101c757600080fd5b506101636101d6366004613f47565b61068f565b3480156101e757600080fd5b506101636101f6366004613d7a565b610722565b34801561020757600080fd5b50610185610216366004613db2565b610804565b34801561022757600080fd5b50610163610236366004613df2565b61081b565b34801561024757600080fd5b506102506108a9565b60405161019291906140b1565b34801561026957600080fd5b5061027d610278366004613d5e565b6108cd565b604051610192919061416d565b34801561029657600080fd5b506102aa6102a5366004613d7a565b610946565b60405161019291906141ba565b3480156102c357600080fd5b506101856102d2366004613db2565b610966565b3480156102e357600080fd5b506101856102f2366004613db2565b610994565b34801561030357600080fd5b50610163610a36565b34801561031857600080fd5b50610163610327366004613d7a565b610b4d565b34801561033857600080fd5b506102aa610347366004613db2565b610cbb565b34801561035857600080fd5b50610163610367366004613df2565b610e73565b34801561037857600080fd5b506102aa610387366004613db2565b610f77565b34801561039857600080fd5b506101636103a7366004613e50565b611051565b3480156103b857600080fd5b506101636103c7366004613fe7565b6113b6565b3480156103d857600080fd5b506101636103e7366004613fb3565b611622565b3480156103f857600080fd5b5061040c610407366004613d5e565b6116e8565b60405161019297969594939291906141c5565b34801561042b57600080fd5b50610250611733565b600260015414156104605760405162461bcd60e51b815260040161045790614c08565b60405180910390fd5b60026001558261046f81611742565b7f00000000000000000000000000000000000000000000000000000000000000006001600160a01b031663d0e30db0346040518263ffffffff1660e01b81526004016000604051808303818588803b1580156104ca57600080fd5b505af11580156104de573d6000803e3d6000fd5b505050505061050e847f00000000000000000000000000000000000000000000000000000000000000003461176a565b61053b847f00000000000000000000000000000000000000000000000000000000000000003433866117d4565b6105436139d2565b61056e857f000000000000000000000000000000000000000000000000000000000000000034611864565b905061057b858583611958565b61058585826119bb565b6105b1857f00000000000000000000000000000000000000000000000000000000000000008584611c5c565b505060018055505050565b6001600160a01b0382166000908152600260208190526040822060040190839081106105e457fe5b015490505b92915050565b816105f981611da9565b6001600160a01b03821661061f5760405162461bcd60e51b8152600401610457906144ed565b6001600160a01b038381166000818152600260205260409081902060030180546001600160a01b0319169386169390931790925590517fff78699124ce6ab1e48255152542b253d1e5c0fc925308a48852e674777ace35906106829085906140b1565b60405180910390a2505050565b8161069981611da9565b6001600160a01b0383166000908152600260205260409020600801548211156106d45760405162461bcd60e51b8152600401610457906146e7565b6001600160a01b03831660008181526002602052604090819020600701849055517fd0db665d5987480b1c4e28f4484b1a9fabff141ffcb5a9ff9f384e4672155c059061068290859061427d565b8161072c81611da9565b6001600160a01b0380841660009081526003602090815260408083209386168352929052205460ff16156107725760405162461bcd60e51b8152600401610457906145c4565b6001600160a01b0383811660008181526002602081815260408084209092018054600180820183559185528285200180546001600160a01b03191696891696871790558484526003825282842095845294905290819020805460ff191690931790925590517f94257d51a6470b587cb1ae3068fee4bce93eff4d149a98bd05aee37ae4911487906106829085906140b1565b6000610811848484611dcf565b90505b9392505050565b6002600154141561083e5760405162461bcd60e51b815260040161045790614c08565b60026001558461084d81611742565b61085886868661176a565b61086586868633866117d4565b61086d6139d2565b610878878787611864565b9050610885878583611958565b610890878783611def565b61089c87878584611c5c565b5050600180555050505050565b7f000000000000000000000000000000000000000000000000000000000000000081565b6001600160a01b03811660009081526002602081815260409283902090910180548351818402810184019094528084526060939283018282801561093a57602002820191906000526020600020905b81546001600160a01b0316815260019091019060200180831161091c575b50505050509050919050565b600360209081526000928352604080842090915290825290205460ff1681565b600080610974858585611eda565b905060006109888683600160036001612056565b98975050505050505050565b6000806109a78584600060026000612056565b925050506000856001600160a01b03166318160ddd6040518163ffffffff1660e01b815260040160206040518083038186803b1580156109e657600080fd5b505afa1580156109fa573d6000803e3d6000fd5b505050506040513d601f19601f82011682018060405250810190610a1e9190614030565b9050610a2c868684846120cd565b9695505050505050565b3360005b6001600160a01b03821660009081526002602081905260409091200154811015610ac8576001600160a01b0382166000908152600360209081526040808320600292839052908320909101805491929184908110610a9457fe5b60009182526020808320909101546001600160a01b031683528201929092526040019020805460ff19169055600101610a3a565b506001600160a01b0381166000908152600260208190526040822080546001600160a01b0319908116825560018201805490911690559190610b0c90830182613a1e565b6003820180546001600160a01b0319169055610b2c600483016000613a3c565b50600060068201819055600782018190556008820181905560099091015550565b81610b5781611da9565b6001600160a01b0380841660009081526003602090815260408083209386168352929052205460ff16610b9c5760405162461bcd60e51b815260040161045790614530565b610c2f8260026000866001600160a01b03166001600160a01b03168152602001908152602001600020600201805480602002602001604051908101604052809291908181526020018280548015610c1c57602002820191906000526020600020905b81546001600160a01b03168152600190910190602001808311610bfe575b505050505061228c90919063ffffffff16565b6001600160a01b03841660009081526002602081815260409092208351610c5c9491909201920190613a4a565b506001600160a01b0380841660008181526003602090815260408083209487168352939052829020805460ff1916905590517f3c59157886f089a91f7813e86300f9f9b36289e41e7c09c70f9cc208b810cd94906106829085906140b1565b600080846001600160a01b03166318160ddd6040518163ffffffff1660e01b815260040160206040518083038186803b158015610cf757600080fd5b505afa158015610d0b573d6000803e3d6000fd5b505050506040513d601f19601f82011682018060405250810190610d2f9190614030565b9050821580610d6457506001600160a01b0380861660009081526003602090815260408083209388168352929052205460ff16155b80610d9957506001600160a01b038516600090815260026020526040902060090154610d96908463ffffffff6122d416565b81105b15610da8576000915050610814565b6000610db5868686611eda565b90506000610dc98783600160036001612056565b925050506000610e53886001600160a01b03166366cb8d2f896040518263ffffffff1660e01b8152600401610dfe91906140b1565b60206040518083038186803b158015610e1657600080fd5b505afa158015610e2a573d6000803e3d6000fd5b505050506040513d601f19601f82011682018060405250810190610e4e9190614030565b6122f9565b905081610e66828663ffffffff61231f16565b1015945050505050610814565b60026001541415610e965760405162461bcd60e51b815260040161045790614c08565b600260015584610ea581611742565b610eb086868661176a565b610ebc86853385612349565b610ec46139d2565b610ecf8787876123c0565b9050610edd878587846124a3565b604051632770a7eb60e21b81526001600160a01b03881690639dc29fac90610f0b9033908990600401614109565b600060405180830381600087803b158015610f2557600080fd5b505af1158015610f39573d6000803e3d6000fd5b5050506060820151610f6091506001600160a01b038916908890869063ffffffff61250c16565b610f6b87878361264e565b61089c8787858461269d565b600080846001600160a01b03166318160ddd6040518163ffffffff1660e01b815260040160206040518083038186803b158015610fb357600080fd5b505afa158015610fc7573d6000803e3d6000fd5b505050506040513d601f19601f82011682018060405250810190610feb9190614030565b9050821580159061102157506001600160a01b0380861660009081526003602090815260408083209388168352929052205460ff165b801561104857506001600160a01b0385166000908152600260205260409020600901548110155b95945050505050565b813361105d828261278b565b83611067816127b1565b60008460400151511161108c5760405162461bcd60e51b8152600401610457906145fb565b611094612872565b8460a00151106110b65760405162461bcd60e51b815260040161045790614b8d565b6110be612872565b8460e00151106110e05760405162461bcd60e51b8152600401610457906147dd565b60a084015160808501515111156111095760405162461bcd60e51b81526004016104579061496f565b60a084015160808501516020015111156111355760405162461bcd60e51b8152600401610457906144a5565b8360e001518460c00151111561115d5760405162461bcd60e51b815260040161045790614437565b60608401516001600160a01b03166111875760405162461bcd60e51b8152600401610457906149b6565b6000846101000151116111ac5760405162461bcd60e51b815260040161045790614375565b60005b846040015151811015611294576001600160a01b038616600090815260036020526040808220908701518051919291849081106111e857fe5b6020908102919091018101516001600160a01b031682528101919091526040016000205460ff161561122c5760405162461bcd60e51b815260040161045790614879565b6001600160a01b03861660009081526003602052604080822090870151805160019391908590811061125a57fe5b6020908102919091018101516001600160a01b03168252810191909152604001600020805460ff19169115159190911790556001016111af565b506001600160a01b03808616600090815260026020818152604092839020885181549086166001600160a01b0319918216178255828a0151600183018054919097169116179094559187015180518894936112f3938501920190613a4a565b5060608201516003820180546001600160a01b0319166001600160a01b03909216919091179055608082015161132f9060048301906002613aab565b5060a0820151816006015560c0820151816007015560e082015181600801556101008201518160090155905050846001600160a01b0316630ffe0f1e6040518163ffffffff1660e01b8152600401600060405180830381600087803b15801561139757600080fd5b505af11580156113ab573d6000803e3d6000fd5b505050505050505050565b600260015414156113d95760405162461bcd60e51b815260040161045790614c08565b6002600155836113e881611742565b611413857f00000000000000000000000000000000000000000000000000000000000000008661176a565b61141f85853385612349565b6114276139d2565b611452867f0000000000000000000000000000000000000000000000000000000000000000876123c0565b9050611460868587846124a3565b604051632770a7eb60e21b81526001600160a01b03871690639dc29fac9061148e9033908990600401614109565b600060405180830381600087803b1580156114a857600080fd5b505af11580156114bc573d6000803e3d6000fd5b505050606082015161150391506001600160a01b038816907f000000000000000000000000000000000000000000000000000000000000000090309063ffffffff61250c16565b6060810151604051632e1a7d4d60e01b81526001600160a01b037f00000000000000000000000000000000000000000000000000000000000000001691632e1a7d4d91611553919060040161427d565b600060405180830381600087803b15801561156d57600080fd5b505af1158015611581573d6000803e3d6000fd5b5050505060608101516040516001600160a01b038516916108fc811502916000818181858888f193505050501580156115be573d6000803e3d6000fd5b506115ea867f00000000000000000000000000000000000000000000000000000000000000008361264e565b611616867f0000000000000000000000000000000000000000000000000000000000000000858461269d565b50506001805550505050565b8261162c81611da9565b6001600160a01b0384166000908152600260205260409020600601548311156116675760405162461bcd60e51b815260040161045790614af6565b8260026000866001600160a01b03166001600160a01b03168152602001908152602001600020600401836002811061169b57fe5b01556040516001600160a01b038516907f4e913bee7cf10ece89b3c5593df3898d1a324864d38052df88792a7d87a17488906116da9086908690614c3f565b60405180910390a250505050565b60026020526000908152604090208054600182015460038301546006840154600785015460088601546009909601546001600160a01b03958616969486169590931693919290919087565b6000546001600160a01b031681565b61174b8161287f565b6117675760405162461bcd60e51b81526004016104579061432d565b50565b6000811161178a5760405162461bcd60e51b8152600401610457906142ff565b6001600160a01b0380841660009081526003602090815260408083209386168352929052205460ff166117cf5760405162461bcd60e51b815260040161045790614730565b505050565b6001600160a01b0380861660009081526002602052604090205416801561185c57604051633ed0b9fb60e21b81526001600160a01b0382169063fb42e7ec906118299089908990899089908990600401614220565b600060405180830381600087803b15801561184357600080fd5b505af1158015611857573d6000803e3d6000fd5b505050505b505050505050565b61186c6139d2565b6118746139d2565b846001600160a01b03166318160ddd6040518163ffffffff1660e01b815260040160206040518083038186803b1580156118ad57600080fd5b505afa1580156118c1573d6000803e3d6000fd5b505050506040513d601f19601f820116820180604052508101906118e59190614030565b60a08201528281526118fc85846000600281612056565b606084018190526040840191909152602083019190915260a08201516119269187918791906120cd565b60808201526119358582612983565b60e083015260c082015261194a858583612a5b565b610100820152949350505050565b6001600160a01b03831660009081526002602052604090206009015460a082015110156119975760405162461bcd60e51b815260040161045790614640565b81816080015110156117cf5760405162461bcd60e51b8152600401610457906143bf565b606081015160405163a9059cbb60e01b81526001600160a01b037f0000000000000000000000000000000000000000000000000000000000000000169163a9059cbb91611a0c918691600401614109565b602060405180830381600087803b158015611a2657600080fd5b505af1158015611a3a573d6000803e3d6000fd5b505050506040513d601f19601f82011682018060405250810190611a5e9190613cb2565b50602081015115611b93577f00000000000000000000000000000000000000000000000000000000000000006001600160a01b031663a9059cbb6000809054906101000a90046001600160a01b03166001600160a01b031663469048406040518163ffffffff1660e01b815260040160206040518083038186803b158015611ae557600080fd5b505afa158015611af9573d6000803e3d6000fd5b505050506040513d601f19601f82011682018060405250810190611b1d9190613bfa565b83602001516040518363ffffffff1660e01b8152600401611b3f929190614109565b602060405180830381600087803b158015611b5957600080fd5b505af1158015611b6d573d6000803e3d6000fd5b505050506040513d601f19601f82011682018060405250810190611b919190613cb2565b505b604081015115611c58576001600160a01b03828116600090815260026020526040908190206003015483820151915163a9059cbb60e01b81527f000000000000000000000000000000000000000000000000000000000000000084169363a9059cbb93611c069390911691600401614109565b602060405180830381600087803b158015611c2057600080fd5b505af1158015611c34573d6000803e3d6000fd5b505050506040513d601f19601f820116820180604052508101906117cf9190613cb2565b5050565b60e081015160405163c2de0e9d60e01b81526001600160a01b0386169163c2de0e9d91611c8c919060040161427d565b600060405180830381600087803b158015611ca657600080fd5b505af1158015611cba573d6000803e3d6000fd5b505050610100820151611ce091506001600160a01b03861690859063ffffffff612ac916565b60808101516040516340c10f1960e01b81526001600160a01b038616916340c10f1991611d11918691600401614109565b600060405180830381600087803b158015611d2b57600080fd5b505af1158015611d3f573d6000803e3d6000fd5b5050506001600160a01b03808616600081815260026020908152604091829020546080870151878401519288015193519496507fab151ef72553d84db96b5656139e68d5e348f8273d15b1724db8f3c09832d80e956116da9533958b958d959093169392916140c5565b611db38133612c47565b6117425760405162461bcd60e51b815260040161045790614abf565b50506001600160a01b031660009081526002602052604090206007015490565b611dff8233858460600151612cd5565b602081015115611e9d57611e9d82336000809054906101000a90046001600160a01b03166001600160a01b031663469048406040518163ffffffff1660e01b815260040160206040518083038186803b158015611e5b57600080fd5b505afa158015611e6f573d6000803e3d6000fd5b505050506040513d601f19601f82011682018060405250810190611e939190613bfa565b8460200151612cd5565b6040810151156117cf576001600160a01b038084166000908152600260205260409081902060030154908301516117cf9285923392911690612cd5565b600080548190611ef2906001600160a01b0316612ce1565b6001600160a01b0316636101c54086866040518363ffffffff1660e01b8152600401611f1f929190614206565b60206040518083038186803b158015611f3757600080fd5b505afa158015611f4b573d6000803e3d6000fd5b505050506040513d601f19601f82011682018060405250810190611f6f9190614030565b90506000611f83848363ffffffff61231f16565b90506000856001600160a01b031663313ce5676040518163ffffffff1660e01b815260040160206040518083038186803b158015611fc057600080fd5b505afa158015611fd4573d6000803e3d6000fd5b505050506040513d601f19601f82011682018060405250810190611ff89190614048565b60ff169050600061201383600a84900a63ffffffff61231f16565b90506000612022898989611dcf565b90506000612036838363ffffffff612d6116565b9050612048838263ffffffff612da016565b9a9950505050505050505050565b600080600080600061206a8a898989612de2565b90925090506000612081838b63ffffffff61231f16565b90506000612095838c63ffffffff61231f16565b905060006120b9826120ad8e8663ffffffff612da016565b9063ffffffff612da016565b929d919c50919a5098505050505050505050565b6000806120db868686611dcf565b905060006120ef858363ffffffff61231f16565b6000805491925090612109906001600160a01b0316612ce1565b6001600160a01b0316636101c54089896040518363ffffffff1660e01b8152600401612136929190614206565b60206040518083038186803b15801561214e57600080fd5b505afa158015612162573d6000803e3d6000fd5b505050506040513d601f19601f820116820180604052508101906121869190614030565b90506000876001600160a01b031663313ce5676040518163ffffffff1660e01b815260040160206040518083038186803b1580156121c357600080fd5b505afa1580156121d7573d6000803e3d6000fd5b505050506040513d601f19601f820116820180604052508101906121fb9190614048565b60ff169050600061221688600a84900a63ffffffff612f7816565b9050600061223e600a84900a6122328b8863ffffffff612da016565b9063ffffffff612f7816565b90506000612266826120ad8561225a8d8a63ffffffff61231f16565b9063ffffffff6122d416565b905061227c81612232848c63ffffffff61231f16565b9c9b505050505050505050505050565b606060008061229b8585612f96565b91509150806122bc5760405162461bcd60e51b815260040161045790614299565b60606122c88684612ff9565b5093506105e992505050565b6000828201838110156108145760405162461bcd60e51b815260040161045790614400565b60008082121561231b5760405162461bcd60e51b815260040161045790614767565b5090565b6000610814670de0b6b3a764000061233d858563ffffffff61312816565b9063ffffffff61316216565b6001600160a01b038085166000908152600260205260409020600101541680156123b957604051639b19c2bf60e01b81526001600160a01b03821690639b19c2bf9061239f908890889088908890600401614252565b600060405180830381600087803b15801561139757600080fd5b5050505050565b6123c86139d2565b6123d06139d2565b608081018390526123e2858585611eda565b8082526123f59086906001600381612056565b606084015260408084019190915260208084019290925280516318160ddd60e01b815290516001600160a01b038816926318160ddd9260048082019391829003018186803b15801561244657600080fd5b505afa15801561245a573d6000803e3d6000fd5b505050506040513d601f19601f8201168201806040525081019061247e9190614030565b60a082015261248e8584836131a4565b60e083015260c082015261194a858583613227565b6001600160a01b03841660009081526002602052604090206009015460c082015110156124e25760405162461bcd60e51b815260040161045790614567565b82816060015110156125065760405162461bcd60e51b815260040161045790614696565b50505050565b8015612506576040516370a0823160e01b81526000906001600160a01b038516906370a08231906125419088906004016140b1565b60206040518083038186803b15801561255957600080fd5b505afa15801561256d573d6000803e3d6000fd5b505050506040513d601f19601f820116820180604052508101906125919190614030565b905061259f858585856132e1565b6040516370a0823160e01b81526000906001600160a01b038616906370a08231906125ce9089906004016140b1565b60206040518083038186803b1580156125e657600080fd5b505afa1580156125fa573d6000803e3d6000fd5b505050506040513d601f19601f8201168201806040525081019061261e9190614030565b9050612630828463ffffffff612da016565b811461185c5760405162461bcd60e51b815260040161045790614938565b61265d838383602001516133ae565b6040810151156117cf576001600160a01b038084166000818152600260205260409081902060030154908401516117cf938692169063ffffffff61250c16565b60e081015160405163c2de0e9d60e01b81526001600160a01b0386169163c2de0e9d916126cd919060040161427d565b600060405180830381600087803b1580156126e757600080fd5b505af11580156126fb573d6000803e3d6000fd5b50505061010082015161272191506001600160a01b03861690859063ffffffff612ac916565b6001600160a01b038085166000818152600260209081526040918290206001015460808601518684015192870151935194957f76608da3459f30443b27df4954c2ee5953695a78cf2327545bc5992eca749f4f956116da9533958b958d95941693929091906140c5565b6127958282612c47565b611c585760405162461bcd60e51b815260040161045790614abf565b600054604051631d3af8fb60e21b81526001600160a01b03909116906374ebe3ec906127e19084906004016140b1565b60206040518083038186803b1580156127f957600080fd5b505afa15801561280d573d6000803e3d6000fd5b505050506040513d601f19601f820116820180604052508101906128319190613cb2565b61284d5760405162461bcd60e51b815260040161045790614a7c565b61285681613455565b6117675760405162461bcd60e51b81526004016104579061446e565b670de0b6b3a76400005b90565b60008054604051631d3af8fb60e21b81526001600160a01b03909116906374ebe3ec906128b09085906004016140b1565b60206040518083038186803b1580156128c857600080fd5b505afa1580156128dc573d6000803e3d6000fd5b505050506040513d601f19601f820116820180604052508101906129009190613cb2565b80156105e957506040516335fc6c9f60e21b81526001600160a01b0383169063d7f1b27c906129339030906004016140b1565b60206040518083038186803b15801561294b57600080fd5b505afa15801561295f573d6000803e3d6000fd5b505050506040513d601f19601f820116820180604052508101906105e99190613cb2565b60008060006129a38460a0015185608001516122d490919063ffffffff16565b90506000612a4c6129b383613484565b612a406129c38860a00151613484565b896001600160a01b0316635230c3966040518163ffffffff1660e01b815260040160206040518083038186803b1580156129fc57600080fd5b505afa158015612a10573d6000803e3d6000fd5b505050506040513d601f19601f82011682018060405250810190612a349190614030565b9063ffffffff6134a916565b9063ffffffff61351416565b919350909150505b9250929050565b600080612a8d856001600160a01b03166366cb8d2f866040518263ffffffff1660e01b8152600401610dfe91906140b1565b90506000612ab0846060015161225a8660a001518561231f90919063ffffffff16565b9050610a2c8460c0015182612f7890919063ffffffff16565b6000612ad58484613578565b905080158015612ae55750600082115b15612b5c57612af484846135ff565b612b57576040516304e3532760e41b81526001600160a01b03851690634e35327090612b249086906004016140b1565b600060405180830381600087803b158015612b3e57600080fd5b505af1158015612b52573d6000803e3d6000fd5b505050505b612bd9565b808015612b67575081155b15612bd957612b7684846135ff565b612bd957604051636f86c89760e01b81526001600160a01b03851690636f86c89790612ba69086906004016140b1565b600060405180830381600087803b158015612bc057600080fd5b505af1158015612bd4573d6000803e3d6000fd5b505050505b836001600160a01b0316632ba57d1784612bf285613484565b6040518363ffffffff1660e01b8152600401612c0f929190614109565b600060405180830381600087803b158015612c2957600080fd5b505af1158015612c3d573d6000803e3d6000fd5b5050505050505050565b6000816001600160a01b0316836001600160a01b031663481c6a756040518163ffffffff1660e01b815260040160206040518083038186803b158015612c8c57600080fd5b505afa158015612ca0573d6000803e3d6000fd5b505050506040513d601f19601f82011682018060405250810190612cc49190613bfa565b6001600160a01b0316149392505050565b6125068484848461368b565b6040516373b2e76b60e11b81526000906001600160a01b0383169063e765ced690612d119060029060040161427d565b60206040518083038186803b158015612d2957600080fd5b505afa158015612d3d573d6000803e3d6000fd5b505050506040513d601f19601f820116820180604052508101906105e99190613bfa565b6000821580612d6e575081155b15612d7b575060006105e9565b610814600161225a670de0b6b3a764000061233d836120ad898963ffffffff61312816565b600061081483836040518060400160405280601e81526020017f536166654d6174683a207375627472616374696f6e206f766572666c6f7700008152506137af565b6000805460405163792aa04f60e01b8152829182916001600160a01b039091169063792aa04f90612e199030908990600401614109565b60206040518083038186803b158015612e3157600080fd5b505afa158015612e45573d6000803e3d6000fd5b505050506040513d601f19601f82011682018060405250810190612e699190614030565b6000805460405163792aa04f60e01b815292935090916001600160a01b039091169063792aa04f90612ea19030908b90600401614109565b60206040518083038186803b158015612eb957600080fd5b505afa158015612ecd573d6000803e3d6000fd5b505050506040513d601f19601f82011682018060405250810190612ef19190614030565b90506000600260008a6001600160a01b03166001600160a01b031681526020019081526020016000206004018660028110612f2857fe5b015490506000612f3e838363ffffffff61231f16565b90506000612f52838363ffffffff612da016565b90506000612f66838763ffffffff6122d416565b9c919b50909950505050505050505050565b60006108148261233d85670de0b6b3a764000063ffffffff61312816565b81516000908190815b81811015612fe957846001600160a01b0316868281518110612fbd57fe5b60200260200101516001600160a01b03161415612fe157925060019150612a549050565b600101612f9f565b5060001995600095509350505050565b81516060906000908084106130205760405162461bcd60e51b8152600401610457906142c8565b60606001820367ffffffffffffffff8111801561303c57600080fd5b50604051908082528060200260200182016040528015613066578160200160208202803683370190505b50905060005b858110156130b45786818151811061308057fe5b602002602001015182828151811061309457fe5b6001600160a01b039092166020928302919091019091015260010161306c565b50600185015b82811015613105578681815181106130ce57fe5b60200260200101518260018303815181106130e557fe5b6001600160a01b03909216602092830291909101909101526001016130ba565b508086868151811061311357fe5b60200260200101519350935050509250929050565b600082613137575060006105e9565b8282028284828161314457fe5b04146108145760405162461bcd60e51b8152600401610457906148b0565b600061081483836040518060400160405280601a81526020017f536166654d6174683a206469766973696f6e206279207a65726f0000000000008152506137db565b60008060006131c0858560a00151612da090919063ffffffff16565b905060006132196131d083613484565b612a406131e08860a00151613484565b8a6001600160a01b0316635230c3966040518163ffffffff1660e01b815260040160206040518083038186803b1580156129fc57600080fd5b919791965090945050505050565b600080613259856001600160a01b03166366cb8d2f866040518263ffffffff1660e01b8152600401610dfe91906140b1565b905060006132748460a001518361231f90919063ffffffff16565b9050600061329b856040015161225a876020015188606001516122d490919063ffffffff16565b9050808210156132bd5760405162461bcd60e51b81526004016104579061482a565b60c08501516132d690612232848463ffffffff612da016565b979650505050505050565b801561250657606082826040516024016132fc929190614109565b60408051601f198184030181529181526020820180516001600160e01b031663a9059cbb60e01b179052516347b7819960e11b81529091506001600160a01b03861690638f6f0332906133589087906000908690600401614146565b600060405180830381600087803b15801561337257600080fd5b505af1158015613386573d6000803e3d6000fd5b505050506040513d6000823e601f3d908101601f1916820160405261185c9190810190613cd2565b80156117cf576117cf826000809054906101000a90046001600160a01b03166001600160a01b031663469048406040518163ffffffff1660e01b815260040160206040518083038186803b15801561340557600080fd5b505afa158015613419573d6000803e3d6000fd5b505050506040513d601f19601f8201168201806040525081019061343d9190613bfa565b6001600160a01b03861691908463ffffffff61250c16565b6040516353bae5f760e01b81526000906001600160a01b038316906353bae5f7906129339030906004016140b1565b6000600160ff1b821061231b5760405162461bcd60e51b815260040161045790614a34565b6000826134b8575060006105e9565b826000191480156134cc5750600160ff1b82145b156134e95760405162461bcd60e51b8152600401610457906148f1565b828202828482816134f657fe5b05146108145760405162461bcd60e51b8152600401610457906148f1565b6000816135335760405162461bcd60e51b815260040161045790614bd3565b816000191480156135475750600160ff1b83145b156135645760405162461bcd60e51b81526004016104579061479c565b600082848161356f57fe5b05949350505050565b600080836001600160a01b03166366cb8d2f846040518263ffffffff1660e01b81526004016135a791906140b1565b60206040518083038186803b1580156135bf57600080fd5b505afa1580156135d3573d6000803e3d6000fd5b505050506040513d601f19601f820116820180604052508101906135f79190614030565b139392505050565b600080836001600160a01b031663a7bdad03846040518263ffffffff1660e01b815260040161362e91906140b1565b60006040518083038186803b15801561364657600080fd5b505afa15801561365a573d6000803e3d6000fd5b505050506040513d6000823e601f3d908101601f191682016040526136829190810190613c16565b51119392505050565b8015612506576040516370a0823160e01b81526000906001600160a01b038616906370a08231906136c09086906004016140b1565b60206040518083038186803b1580156136d857600080fd5b505afa1580156136ec573d6000803e3d6000fd5b505050506040513d601f19601f820116820180604052508101906137109190614030565b905061371e85858585613812565b6040516370a0823160e01b81526000906001600160a01b038716906370a082319061374d9087906004016140b1565b60206040518083038186803b15801561376557600080fd5b505afa158015613779573d6000803e3d6000fd5b505050506040513d601f19601f8201168201806040525081019061379d9190614030565b9050612630828463ffffffff6122d416565b600081848411156137d35760405162461bcd60e51b81526004016104579190614286565b505050900390565b600081836137fc5760405162461bcd60e51b81526004016104579190614286565b50600083858161380857fe5b0495945050505050565b612506846323b872dd60e01b85858560405160240161383393929190614122565b60408051601f198184030181529190526020810180516001600160e01b03166001600160e01b03199093169290921790915260606138ba826040518060400160405280602081526020017f5361666545524332303a206c6f772d6c6576656c2063616c6c206661696c6564815250856001600160a01b03166138f49092919063ffffffff16565b8051909150156117cf57808060200190518101906138d89190613cb2565b6117cf5760405162461bcd60e51b815260040161045790614b43565b606061081184846000858561390885613993565b6139245760405162461bcd60e51b8152600401610457906149fd565b60006060866001600160a01b031685876040516139419190614095565b60006040518083038185875af1925050503d806000811461397e576040519150601f19603f3d011682016040523d82523d6000602084013e613983565b606091505b50915091506132d6828286613999565b3b151590565b606083156139a8575081610814565b8251156139b85782518084602001fd5b8160405162461bcd60e51b81526004016104579190614286565b6040518061012001604052806000815260200160008152602001600081526020016000815260200160008152602001600081526020016000815260200160008152602001600081525090565b50805460008255906000526020600020908101906117679190613ae1565b506000815560010160009055565b828054828255906000526020600020908101928215613a9f579160200282015b82811115613a9f57825182546001600160a01b0319166001600160a01b03909116178255602090920191600190910190613a6a565b5061231b929150613afb565b8260028101928215613ad9579160200282015b82811115613ad9578251825591602001919060010190613abe565b5061231b9291505b61287c91905b8082111561231b5760008155600101613ae7565b61287c91905b8082111561231b5780546001600160a01b0319168155600101613b01565b80356105e981614cc0565b600082601f830112613b3a578081fd5b8135613b4d613b4882614c74565b614c4d565b818152915060208083019084810181840286018201871015613b6e57600080fd5b60005b84811015613b96578135613b8481614cc0565b84529282019290820190600101613b71565b505050505092915050565b600082601f830112613bb1578081fd5b613bbb6040614c4d565b9050808284604085011115613bcf57600080fd5b60005b6002811015613bf1578135835260209283019290910190600101613bd2565b50505092915050565b600060208284031215613c0b578081fd5b815161081481614cc0565b60006020808385031215613c28578182fd5b825167ffffffffffffffff811115613c3e578283fd5b80840185601f820112613c4f578384fd5b80519150613c5f613b4883614c74565b8281528381019082850185850284018601891015613c7b578687fd5b8693505b84841015613ca6578051613c9281614cc0565b835260019390930192918501918501613c7f565b50979650505050505050565b600060208284031215613cc3578081fd5b81518015158114610814578182fd5b600060208284031215613ce3578081fd5b815167ffffffffffffffff80821115613cfa578283fd5b81840185601f820112613d0b578384fd5b8051925081831115613d1b578384fd5b613d2e601f8401601f1916602001614c4d565b9150828252856020848301011115613d44578384fd5b613d55836020840160208401614c94565b50949350505050565b600060208284031215613d6f578081fd5b813561081481614cc0565b60008060408385031215613d8c578081fd5b8235613d9781614cc0565b91506020830135613da781614cc0565b809150509250929050565b600080600060608486031215613dc6578081fd5b8335613dd181614cc0565b92506020840135613de181614cc0565b929592945050506040919091013590565b600080600080600060a08688031215613e09578081fd5b8535613e1481614cc0565b94506020860135613e2481614cc0565b935060408601359250606086013591506080860135613e4281614cc0565b809150509295509295909350565b60008060408385031215613e62578182fd5b8235613e6d81614cc0565b9150602083013567ffffffffffffffff80821115613e89578283fd5b8185016101408188031215613e9c578384fd5b6101209250613eaa83614c4d565b613eb48883613b1f565b8152613ec38860208401613b1f565b6020820152604082013583811115613ed9578586fd5b613ee589828501613b2a565b604083015250613ef88860608401613b1f565b6060820152613f0a8860808401613ba1565b608082015260c082013560a082015260e082013560c082015261010092508282013560e08201528382013583820152809450505050509250929050565b60008060408385031215613f59578182fd5b8235613f6481614cc0565b946020939093013593505050565b600080600060608486031215613f86578081fd5b8335613f9181614cc0565b9250602084013591506040840135613fa881614cc0565b809150509250925092565b600080600060608486031215613fc7578081fd5b8335613fd281614cc0565b95602085013595506040909401359392505050565b60008060008060808587031215613ffc578182fd5b843561400781614cc0565b93506020850135925060408501359150606085013561402581614cc0565b939692955090935050565b600060208284031215614041578081fd5b5051919050565b600060208284031215614059578081fd5b815160ff81168114610814578182fd5b60008151808452614081816020860160208601614c94565b601f01601f19169290920160200192915050565b600082516140a7818460208701614c94565b9190910192915050565b6001600160a01b0391909116815260200190565b6001600160a01b03978816815295871660208701529386166040860152919094166060840152608083019390935260a082019290925260c081019190915260e00190565b6001600160a01b03929092168252602082015260400190565b6001600160a01b039384168152919092166020820152604081019190915260600190565b600060018060a01b0385168252836020830152606060408301526110486060830184614069565b6020808252825182820181905260009190848201906040850190845b818110156141ae5783516001600160a01b031683529284019291840191600101614189565b50909695505050505050565b901515815260200190565b6001600160a01b03978816815295871660208701529390951660408501526060840191909152608083015260a082019290925260c081019190915260e00190565b6001600160a01b0392831681529116602082015260400190565b6001600160a01b0395861681529385166020850152604084019290925283166060830152909116608082015260a00190565b6001600160a01b03948516815260208101939093529083166040830152909116606082015260800190565b90815260200190565b6000602082526108146020830184614069565b60208082526015908201527420b2323932b9b9903737ba1034b71030b93930bc9760591b604082015260600190565b60208082526018908201527f496e646578206d757374206265203c2041206c656e6774680000000000000000604082015260600190565b60208082526014908201527305175616e74697479206d757374206265203e20360641b604082015260600190565b60208082526028908201527f4d75737420626520612076616c696420616e6420696e697469616c697a65642060408201526729b2ba2a37b5b2b760c11b606082015260800190565b6020808252602a908201527f4d696e20536574546f6b656e20737570706c79206d75737420626520677265616040820152690746572207468616e20360b41b606082015260800190565b60208082526021908201527f4d7573742062652067726561746572207468616e206d696e20536574546f6b656040820152603760f91b606082015260800190565b6020808252601b908201527f536166654d6174683a206164646974696f6e206f766572666c6f770000000000604082015260600190565b6020808252601d908201527f5072656d69756d206d757374206265206c657373207468616e206d6178000000604082015260600190565b6020808252601e908201527f4d7573742062652070656e64696e6720696e697469616c697a6174696f6e0000604082015260600190565b60208082526028908201527f4d616e616765722072656465656d20666565206d757374206265206c657373206040820152670e8d0c2dc40dac2f60c31b606082015260800190565b60208082526023908201527f46656520726563697069656e74206d757374206e6f742062652030206164647260408201526265737360e81b606082015260800190565b6020808252601c908201527f5265736572766520617373657420646f6573206e6f7420657869737400000000604082015260600190565b60208082526038908201527f537570706c79206d7573742062652067726561746572207468616e206d696e6960408201527f6d756d20746f20656e61626c6520726564656d7074696f6e0000000000000000606082015260800190565b6020808252601c908201527f5265736572766520617373657420616c72656164792065786973747300000000604082015260600190565b60208082526025908201527f5265736572766520617373657473206d75737420626520677265617465722074604082015264068616e20360dc1b606082015260800190565b60208082526036908201527f537570706c79206d7573742062652067726561746572207468616e206d696e696040820152756d756d20746f20656e61626c652069737375616e636560501b606082015260800190565b60208082526031908201527f4d7573742062652067726561746572207468616e206d696e20726563656976656040820152702072657365727665207175616e7469747960781b606082015260800190565b60208082526029908201527f5072656d69756d206d757374206265206c657373207468616e206d6178696d756040820152681b48185b1b1bddd95960ba1b606082015260800190565b6020808252601b908201527f4d7573742062652076616c696420726573657276652061737365740000000000604082015260600190565b6020808252818101527f53616665436173743a2076616c7565206d75737420626520706f736974697665604082015260600190565b60208082526021908201527f5369676e6564536166654d6174683a206469766973696f6e206f766572666c6f6040820152607760f81b606082015260800190565b6020808252602d908201527f4d6178207072656d69756d2070657263656e74616765206d757374206265206c60408201526c657373207468616e203130302560981b606082015260800190565b6020808252602f908201527f4d7573742062652067726561746572207468616e20746f74616c20617661696c60408201526e18589b194818dbdb1b185d195c985b608a1b606082015260800190565b6020808252601d908201527f5265736572766520617373657473206d75737420626520756e69717565000000604082015260600190565b60208082526021908201527f536166654d6174683a206d756c7469706c69636174696f6e206f766572666c6f6040820152607760f81b606082015260800190565b60208082526027908201527f5369676e6564536166654d6174683a206d756c7469706c69636174696f6e206f604082015266766572666c6f7760c81b606082015260800190565b6020808252601d908201527f496e76616c696420706f7374207472616e736665722062616c616e6365000000604082015260600190565b60208082526027908201527f4d616e6167657220697373756520666565206d757374206265206c65737320746040820152660d0c2dc40dac2f60cb1b606082015260800190565b60208082526027908201527f46656520526563697069656e74206d757374206265206e6f6e2d7a65726f206160408201526632323932b9b99760c91b606082015260800190565b6020808252601d908201527f416464726573733a2063616c6c20746f206e6f6e2d636f6e7472616374000000604082015260600190565b60208082526028908201527f53616665436173743a2076616c756520646f65736e27742066697420696e2061604082015267371034b73a191a9b60c11b606082015260800190565b60208082526023908201527f4d75737420626520636f6e74726f6c6c65722d656e61626c656420536574546f60408201526235b2b760e91b606082015260800190565b6020808252601c908201527f4d7573742062652074686520536574546f6b656e206d616e6167657200000000604082015260600190565b6020808252602d908201527f4d616e6167657220666565206d757374206265206c657373207468616e206d6160408201526c1e1a5b5d5b48185b1b1bddd959609a1b606082015260800190565b6020808252602a908201527f5361666545524332303a204552433230206f7065726174696f6e20646964206e6040820152691bdd081cdd58d8d9595960b21b606082015260800190565b60208082526026908201527f4d6178206d616e6167657220666565206d757374206265206c657373207468616040820152656e203130302560d01b606082015260800190565b6020808252818101527f5369676e6564536166654d6174683a206469766973696f6e206279207a65726f604082015260600190565b6020808252601f908201527f5265656e7472616e637947756172643a207265656e7472616e742063616c6c00604082015260600190565b918252602082015260400190565b60405181810167ffffffffffffffff81118282101715614c6c57600080fd5b604052919050565b600067ffffffffffffffff821115614c8a578081fd5b5060209081020190565b60005b83811015614caf578181015183820152602001614c97565b838111156125065750506000910152565b6001600160a01b038116811461176757600080fdfea2646970667358221220e5736d60af142f8e02c9b0713ce3502a122561161046b1e08b64094cddbd864e64736f6c634300060a0033",
  "linkReferences": {},
  "deployedLinkReferences": {}
}