{
  "_format": "hh-sol-artifact-1",
  "contractName": "SetTokenCreator",
  "sourceName": "contracts/protocol/SetTokenCreator.sol",
  "abi": [
    {
      "inputs": [
        {
          "internalType": "contract IController",
          "name": "_controller",
          "type": "address"
        }
      ],
      "stateMutability": "nonpayable",
      "type": "constructor"
    },
    {
      "anonymous": false,
      "inputs": [
        {
          "indexed": true,
          "internalType": "address",
          "name": "_setToken",
          "type": "address"
        },
        {
          "indexed": false,
          "internalType": "address",
          "name": "_manager",
          "type": "address"
        },
        {
          "indexed": false,
          "internalType": "string",
          "name": "_name",
          "type": "string"
        },
        {
          "indexed": false,
          "internalType": "string",
          "name": "_symbol",
          "type": "string"
        }
      ],
      "name": "SetTokenCreated",
      "type": "event"
    },
    {
      "inputs": [],
      "name": "controller",
      "outputs": [
        {
          "internalType": "contract IController",
          "name": "",
          "type": "address"
        }
      ],
      "stateMutability": "view",
      "type": "function"
    },
    {
      "inputs": [
        {
          "internalType": "address[]",
          "name": "_components",
          "type": "address[]"
        },
        {
          "internalType": "int256[]",
          "name": "_units",
          "type": "int256[]"
        },
        {
          "internalType": "address[]",
          "name": "_modules",
          "type": "address[]"
        },
        {
          "internalType": "address",
          "name": "_manager",
          "type": "address"
        },
        {
          "internalType": "string",
          "name": "_name",
          "type": "string"
        },
        {
          "internalType": "string",
          "name": "_symbol",
          "type": "string"
        }
      ],
      "name": "create",
      "outputs": [
        {
          "internalType": "address",
          "name": "",
          "type": "address"
        }
      ],
      "stateMutability": "nonpayable",
      "type": "function"
    }
  ],
  "bytecode": "0x608060405234801561001057600080fd5b506040516147d93803806147d983398101604081905261002f91610054565b600080546001600160a01b0319166001600160a01b0392909216919091179055610082565b600060208284031215610065578081fd5b81516001600160a01b038116811461007b578182fd5b9392505050565b614748806100916000396000f3fe60806040523480156200001157600080fd5b50600436106200003a5760003560e01c8063a949dc3e146200003f578063f77c4791146200006e575b600080fd5b62000056620000503660046200060c565b62000078565b604051620000659190620007c3565b60405180910390f35b62000056620003c2565b600080875111620000a65760405162461bcd60e51b81526004016200009d906200091b565b60405180910390fd5b8551875114620000ca5760405162461bcd60e51b81526004016200009d9062000a69565b620000d587620003d1565b15620000f55760405162461bcd60e51b81526004016200009d90620008d7565b6000855111620001195760405162461bcd60e51b81526004016200009d9062000952565b6001600160a01b038416620001425760405162461bcd60e51b81526004016200009d90620009f0565b60005b8751811015620001d95760006001600160a01b03168882815181106200016757fe5b60200260200101516001600160a01b03161415620001995760405162461bcd60e51b81526004016200009d9062000a27565b6000878281518110620001a857fe5b602002602001015113620001d05760405162461bcd60e51b81526004016200009d9062000989565b60010162000145565b5060005b8551811015620002ad5760005486516001600160a01b03909116906342f6e389908890849081106200020b57fe5b60200260200101516040518263ffffffff1660e01b8152600401620002319190620007c3565b60206040518083038186803b1580156200024a57600080fd5b505afa1580156200025f573d6000803e3d6000fd5b505050506040513d601f19601f82011682018060405250810190620002859190620006fa565b620002a45760405162461bcd60e51b81526004016200009d90620009c0565b600101620001dd565b5060008787876000809054906101000a90046001600160a01b0316888888604051620002d9906200048d565b620002eb97969594939291906200081b565b604051809103906000f08015801562000308573d6000803e3d6000fd5b5060005460405163356037b560e21b81529192506001600160a01b03169063d580ded4906200033c908490600401620007c3565b600060405180830381600087803b1580156200035757600080fd5b505af11580156200036c573d6000803e3d6000fd5b50505050806001600160a01b03167fb7b1e89d4bb640b93b0cb96b27077ceb558d073e00531c0a712a4afc9ccf06fe868686604051620003af93929190620007d7565b60405180910390a2979650505050505050565b6000546001600160a01b031681565b600080825111620003f65760405162461bcd60e51b81526004016200009d9062000ab4565b60005b6001835103811015620004825760008382815181106200041557fe5b6020026020010151905060008260010190505b845181101562000477578481815181106200043f57fe5b60200260200101516001600160a01b0316826001600160a01b031614156200046e576001935050505062000488565b60010162000428565b5050600101620003f9565b50600090505b919050565b613bf18062000b2283390190565b80356001600160a01b0381168114620004b357600080fd5b92915050565b600082601f830112620004ca578081fd5b8135620004e1620004db8262000b00565b62000ad8565b8181529150602080830190848101818402860182018710156200050357600080fd5b60005b848110156200052e576200051b88836200049b565b8452928201929082019060010162000506565b505050505092915050565b600082601f8301126200054a578081fd5b81356200055b620004db8262000b00565b8181529150602080830190848101818402860182018710156200057d57600080fd5b60005b848110156200052e5781358452928201929082019060010162000580565b600082601f830112620005af578081fd5b813567ffffffffffffffff811115620005c6578182fd5b620005db601f8201601f191660200162000ad8565b9150808252836020828501011115620005f357600080fd5b8060208401602084013760009082016020015292915050565b60008060008060008060c0878903121562000625578182fd5b863567ffffffffffffffff808211156200063d578384fd5b6200064b8a838b01620004b9565b9750602089013591508082111562000661578384fd5b6200066f8a838b0162000539565b9650604089013591508082111562000685578384fd5b620006938a838b01620004b9565b9550620006a48a60608b016200049b565b94506080890135915080821115620006ba578384fd5b620006c88a838b016200059e565b935060a0890135915080821115620006de578283fd5b50620006ed89828a016200059e565b9150509295509295509295565b6000602082840312156200070c578081fd5b815180151581146200071c578182fd5b9392505050565b6001600160a01b03169052565b6000815180845260208085019450808401835b838110156200076a5781516001600160a01b03168752958201959082019060010162000743565b509495945050505050565b60008151808452815b818110156200079c576020818501810151868301820152016200077e565b81811115620007ae5782602083870101525b50601f01601f19169290920160200192915050565b6001600160a01b0391909116815260200190565b6001600160a01b0384168152606060208201819052600090620007fd9083018562000775565b828103604084015262000811818562000775565b9695505050505050565b600060e082526200083060e083018a62000730565b82810360208481019190915289518083528a820192820190845b8181101562000868578451835293830193918301916001016200084a565b505084810360408601526200087e818b62000730565b9250505062000891606084018862000723565b620008a0608084018762000723565b82810360a0840152620008b4818662000775565b83810360c0850152620008c8818662000775565b9b9a5050505050505050505050565b60208082526024908201527f436f6d706f6e656e7473206d757374206e6f7420686176652061206475706c696040820152636361746560e01b606082015260800190565b6020808252601e908201527f4d7573742068617665206174206c65617374203120636f6d706f6e656e740000604082015260600190565b6020808252601b908201527f4d7573742068617665206174206c656173742031206d6f64756c650000000000604082015260600190565b6020808252601c908201527f556e697473206d7573742062652067726561746572207468616e203000000000604082015260600190565b6020808252601690820152754d75737420626520656e61626c6564206d6f64756c6560501b604082015260600190565b60208082526019908201527f4d616e61676572206d757374206e6f7420626520656d70747900000000000000604082015260600190565b60208082526022908201527f436f6d706f6e656e74206d757374206e6f74206265206e756c6c206164647265604082015261737360f01b606082015260800190565b6020808252602b908201527f436f6d706f6e656e7420616e6420756e6974206c656e67746873206d7573742060408201526a6265207468652073616d6560a81b606082015260800190565b6020808252600a90820152694120697320656d70747960b01b604082015260600190565b60405181810167ffffffffffffffff8111828210171562000af857600080fd5b604052919050565b600067ffffffffffffffff82111562000b17578081fd5b506020908102019056fe60806040523480156200001157600080fd5b5060405162003bf138038062003bf1833981016040819052620000349162000476565b8151829082906200004d906003906020850190620001bf565b50805162000063906004906020840190620001bf565b505060058054601260ff1990911617610100600160a81b0319166101006001600160a01b038881169190910291909117909155600680546001600160a01b03191691861691909117905550620000c4620001b2602090811b62001b4317901c565b600d558651620000dc90600b9060208a019062000244565b5060005b85518110156200014357600160096000888481518110620000fd57fe5b6020908102919091018101516001600160a01b03168252810191909152604001600020805460ff191660018360028111156200013557fe5b0217905550600101620000e0565b5060005b8751811015620001a4578681815181106200015e57fe5b6020026020010151600c60008a84815181106200017757fe5b6020908102919091018101516001600160a01b031682528101919091526040016000205560010162000147565b5050505050505050620005d8565b670de0b6b3a76400005b90565b828054600181600116156101000203166002900490600052602060002090601f016020900481019282601f106200020257805160ff191683800117855562000232565b8280016001018555821562000232579182015b828111156200023257825182559160200191906001019062000215565b5062000240929150620002aa565b5090565b8280548282559060005260206000209081019282156200029c579160200282015b828111156200029c57825182546001600160a01b0319166001600160a01b0390911617825560209092019160019091019062000265565b5062000240929150620002c7565b620001bc91905b80821115620002405760008155600101620002b1565b620001bc91905b80821115620002405780546001600160a01b0319168155600101620002ce565b8051620002fb81620005bf565b92915050565b600082601f83011262000312578081fd5b81516200032962000323826200059f565b62000578565b8181529150602080830190848101818402860182018710156200034b57600080fd5b60005b84811015620003775781516200036481620005bf565b845292820192908201906001016200034e565b505050505092915050565b600082601f83011262000393578081fd5b8151620003a462000323826200059f565b818152915060208083019084810181840286018201871015620003c657600080fd5b60005b848110156200037757815184529282019290820190600101620003c9565b600082601f830112620003f8578081fd5b81516001600160401b038111156200040e578182fd5b602062000424601f8301601f1916820162000578565b925081835284818386010111156200043b57600080fd5b60005b828110156200045b5784810182015184820183015281016200043e565b828111156200046d5760008284860101525b50505092915050565b600080600080600080600060e0888a03121562000491578283fd5b87516001600160401b0380821115620004a8578485fd5b620004b68b838c0162000301565b985060208a0151915080821115620004cc578485fd5b620004da8b838c0162000382565b975060408a0151915080821115620004f0578485fd5b620004fe8b838c0162000301565b96506200050f8b60608c01620002ee565b9550620005208b60808c01620002ee565b945060a08a015191508082111562000536578384fd5b620005448b838c01620003e7565b935060c08a01519150808211156200055a578283fd5b50620005698a828b01620003e7565b91505092959891949750929550565b6040518181016001600160401b03811182821017156200059757600080fd5b604052919050565b60006001600160401b03821115620005b5578081fd5b5060209081020190565b6001600160a01b0381168114620005d557600080fd5b50565b61360980620005e86000396000f3fe6080604052600436106102b25760003560e01c80638ae458da11610175578063b2494df3116100dc578063d7f1b27c11610095578063ea0ee5591161006f578063ea0ee55914610842578063eaf993e114610862578063f77c479114610882578063f83d08ba14610897576102b9565b8063d7f1b27c146107e2578063dd62ed3e14610802578063df5e9b2914610822576102b9565b8063b2494df314610738578063c2de0e9d1461074d578063c5d574fe1461076d578063c75640171461078d578063d0ebdbe7146107ad578063d7b96d4e146107cd576102b9565b8063a457c2d71161012e578063a457c2d71461068e578063a4e2d634146106ae578063a69df4b5146106c3578063a7bdad03146106d8578063a9059cbb146106f8578063acf3f07714610718576102b9565b80638ae458da146105d75780638f6f0332146105f757806395d89b411461061757806399d50d5d1461062c5780639dc29fac1461064e578063a06324611461066e576102b9565b806340c10f191161021957806366cb8d2f116101d257806366cb8d2f146105155780636f86c8971461053557806370a08231146105555780637d96659314610575578063802758601461059557806381b2248a146105b7576102b9565b806340c10f191461045e578063481c6a751461047e5780634e353270146104a05780635230c396146104c057806353bae5f7146104d557806363a90fc1146104f5576102b9565b806323b872dd1161026b57806323b872dd1461038f57806326898fe1146103af5780632ba57d17146103cf578063313ce567146103ef57806335bc4e5214610411578063395093511461043e576102b9565b806306fdde03146102be578063095ea7b3146102e95780630ffe0f1e1461031657806318160ddd1461032d5780631ed86f191461034f57806322ebeba41461036f576102b9565b366102b957005b600080fd5b3480156102ca57600080fd5b506102d36108ac565b6040516102e09190612dcd565b60405180910390f35b3480156102f557600080fd5b50610309610304366004612b46565b610943565b6040516102e09190612d7e565b34801561032257600080fd5b5061032b610961565b005b34801561033957600080fd5b50610342610a4b565b6040516102e09190612df4565b34801561035b57600080fd5b5061032b61036a366004612a17565b610a51565b34801561037b57600080fd5b5061034261038a366004612a32565b610b89565b34801561039b57600080fd5b506103096103aa366004612b06565b610ba4565b3480156103bb57600080fd5b5061032b6103ca366004612a66565b610c31565b3480156103db57600080fd5b5061032b6103ea366004612b46565b610ccc565b3480156103fb57600080fd5b50610404610d43565b6040516102e091906134b6565b34801561041d57600080fd5b5061043161042c366004612a17565b610d4c565b6040516102e09190612de0565b34801561044a57600080fd5b50610309610459366004612b46565b610d61565b34801561046a57600080fd5b5061032b610479366004612b46565b610db5565b34801561048a57600080fd5b50610493610dd3565b6040516102e09190612c5c565b3480156104ac57600080fd5b5061032b6104bb366004612a17565b610de2565b3480156104cc57600080fd5b50610342610e6a565b3480156104e157600080fd5b506103096104f0366004612a17565b610e70565b34801561050157600080fd5b5061032b610510366004612ac9565b610ea3565b34801561052157600080fd5b50610342610530366004612a17565b610f22565b34801561054157600080fd5b5061032b610550366004612a17565b610f30565b34801561056157600080fd5b50610342610570366004612a17565b610ff9565b34801561058157600080fd5b50610309610590366004612a32565b611014565b3480156105a157600080fd5b506105aa61102f565b6040516102e09190612cd7565b3480156105c357600080fd5b506104936105d2366004612bd2565b6111ec565b3480156105e357600080fd5b506102d36105f2366004612a32565b611213565b34801561060357600080fd5b506102d3610612366004612b70565b61121f565b34801561062357600080fd5b506102d36112cc565b34801561063857600080fd5b5061064161132d565b6040516102e09190612c8a565b34801561065a57600080fd5b5061032b610669366004612b46565b61138e565b34801561067a57600080fd5b5061032b610689366004612a17565b6113a8565b34801561069a57600080fd5b506103096106a9366004612b46565b611549565b3480156106ba57600080fd5b506103096115b7565b3480156106cf57600080fd5b5061032b6115c0565b3480156106e457600080fd5b506106416106f3366004612a17565b611630565b34801561070457600080fd5b50610309610713366004612b46565b61163b565b34801561072457600080fd5b5061032b610733366004612a32565b61164f565b34801561074457600080fd5b5061064161172c565b34801561075957600080fd5b5061032b610768366004612bd2565b61178c565b34801561077957600080fd5b50610493610788366004612bd2565b6117fc565b34801561079957600080fd5b5061032b6107a8366004612a17565b611809565b3480156107b957600080fd5b5061032b6107c8366004612a17565b6118c3565b3480156107d957600080fd5b5061049361194d565b3480156107ee57600080fd5b506103096107fd366004612a17565b61195c565b34801561080e57600080fd5b5061034261081d366004612a32565b611965565b34801561082e57600080fd5b5061030961083d366004612a17565b611990565b34801561084e57600080fd5b5061032b61085d366004612a32565b6119ff565b34801561086e57600080fd5b5061034261087d366004612a17565b611a7c565b34801561088e57600080fd5b50610493611ae3565b3480156108a357600080fd5b5061032b611af7565b60038054604080516020601f60026000196101006001881615020190951694909404938401819004810282018101909252828152606093909290918301828280156109385780601f1061090d57610100808354040283529160200191610938565b820191906000526020600020905b81548152906001019060200180831161091b57829003601f168201915b505050505090505b90565b6000610957610950611b4f565b8484611b53565b5060015b92915050565b600a5460ff161561098d5760405162461bcd60e51b815260040161098490613395565b60405180910390fd5b60013360009081526009602052604090205460ff1660028111156109ad57fe5b146109ca5760405162461bcd60e51b815260040161098490613425565b33600081815260096020526040808220805460ff19166002179055600880546001810182559083527ff3f7a9fe364faab93b216da50a3214154f22a0a2b415b23a84c8169e8b636ee30180546001600160a01b03191684179055517f27b541a16df0902e262f34789782092ab25125513b8ed73608e802951771b9289190a2565b60025490565b610a59611c07565b6001600160a01b03811660009081526009602052604081205460ff166002811115610a8057fe5b14610a9d5760405162461bcd60e51b815260040161098490612ed2565b6005546040516342f6e38960e01b81526101009091046001600160a01b0316906342f6e38990610ad1908490600401612c5c565b60206040518083038186803b158015610ae957600080fd5b505afa158015610afd573d6000803e3d6000fd5b505050506040513d601f19601f82011682018060405250810190610b219190612bb2565b610b3d5760405162461bcd60e51b81526004016109849061315b565b6001600160a01b038116600081815260096020526040808220805460ff19166001179055517fead6a006345da1073a106d5f32372d2d2204f46cb0b4bca8f5ebafcbbed12b8a9190a250565b6000610b9d610b988484611c33565b611c62565b9392505050565b6000610bb1848484611c79565b610c2784610bbd611b4f565b610c2285604051806060016040528060288152602001613587602891396001600160a01b038a16600090815260016020526040812090610bfb611b4f565b6001600160a01b03168152602081019190915260400160002054919063ffffffff611d9a16565b611b53565b5060019392505050565b610c39611dc6565b610c41611ea3565b6001600160a01b038085166000908152600c6020908152604080832093871683526002909301905220610c78906001018383612818565b50826001600160a01b0316846001600160a01b03167fb373eedb8e9038a2dcba31f06b2735887c1a904125e5c9f0021ba41ed972318e8484604051610cbe929190612d89565b60405180910390a350505050565b610cd4611dc6565b610cdc611ea3565b6000610ce782611ed8565b6001600160a01b0384166000818152600c60205260409081902083905551919250907f8133e2bf34edab764b55c59d1d41f9df637e7c22828bb6b0a9d55b429d008a9790610d36908590612df4565b60405180910390a2505050565b60055460ff1690565b60096020526000908152604090205460ff1681565b6000610957610d6e611b4f565b84610c228560016000610d7f611b4f565b6001600160a01b03908116825260208083019390935260409182016000908120918c16815292529020549063ffffffff611f1d16565b610dbd611dc6565b610dc5611ea3565b610dcf8282611f42565b5050565b6006546001600160a01b031681565b610dea611dc6565b610df2611ea3565b600b805460018101825560009182527f0175b7a638427703f0dbe7bb9bbf987a2551717b34e79f33b5b1008d1fa01db90180546001600160a01b0319166001600160a01b03841690811790915560405190917f76da6cf8b40dd2b2c223a5956831e0ff4e75522538a86782108a0bbe1577e29891a250565b600d5481565b600060015b6001600160a01b03831660009081526009602052604090205460ff166002811115610e9c57fe5b1492915050565b610eab611dc6565b610eb3611ea3565b6000610ebe82611ed8565b6001600160a01b038086166000818152600c602090815260408083209489168084526002909501909152908190208490555192935090917f81a422e27f503e1b92cdb616a6e653aac10a8e0c3fa6832a58dc616c080fd7bd90610cbe908690612df4565b600061095b610b988361200e565b610f38611dc6565b610f40611ea3565b610fad81600b805480602002602001604051908101604052809291908181526020018280548015610f9a57602002820191906000526020600020905b81546001600160a01b03168152600190910190602001808311610f7c575b505050505061202990919063ffffffff16565b8051610fc191600b91602090910190612896565b506040516001600160a01b038216907fc605d0bf97f9b921340106a2e59f9428d5eb9039b16866159e0cdd2bf8e963df90600090a250565b6001600160a01b031660009081526020819052604090205490565b6000610b9d8261102385612071565b9063ffffffff6120ea16565b60608061103a612100565b67ffffffffffffffff8111801561105057600080fd5b5060405190808252806020026020018201604052801561108a57816020015b6110776128f7565b81526020019060019003908161106f5790505b5090506000805b600b548110156111e4576000600b82815481106110aa57fe5b60009182526020822001546001600160a01b031691506110c98261200e565b1315611138576040805160a0810182526001600160a01b0383168152600060208201529081016110f883610f22565b8152602001600060ff1681526020016040518060200160405280600081525081525084848151811061112657fe5b60209081029190910101526001909201915b606061114382612071565b905060005b81518110156111d957600082828151811061115f57fe5b602002602001015190506040518060a00160405280856001600160a01b03168152602001826001600160a01b0316815260200161119c8684610b89565b8152600160208201526040016111b28684612185565b8152508787815181106111c157fe5b60209081029190910101525060019485019401611148565b505050600101611091565b509091505090565b600881815481106111f957fe5b6000918252602090912001546001600160a01b0316905081565b6060610b9d8383612185565b6060611229611dc6565b611231611ea3565b61127c83838080601f01602080910402602001604051908101604052809392919081815260200183838082843760009201919091525050506001600160a01b03881691905086612243565b905083856001600160a01b03167f2a936dbabeaea30adc1ddad138b1958497988474bef8b09a29411f0105ab8ab28585856040516112bc93929190612d9d565b60405180910390a3949350505050565b60048054604080516020601f60026000196101006001881615020190951694909404938401819004810282018101909252828152606093909290918301828280156109385780601f1061090d57610100808354040283529160200191610938565b6060600b80548060200260200160405190810160405280929190818152602001828054801561093857602002820191906000526020600020905b81546001600160a01b03168152600190910190602001808311611367575050505050905090565b611396611dc6565b61139e611ea3565b610dcf8282612271565b6113b0611c07565b600a5460ff16156113d35760405162461bcd60e51b815260040161098490613395565b60026001600160a01b03821660009081526009602052604090205460ff1660028111156113fc57fe5b146114195760405162461bcd60e51b815260040161098490613040565b806001600160a01b031663847ef08d6040518163ffffffff1660e01b8152600401600060405180830381600087803b15801561145457600080fd5b505af1158015611468573d6000803e3d6000fd5b505050506001600160a01b0381166000908152600960205260408120805460ff191660018302179055506114fd816008805480602002602001604051908101604052809291908181526020018280548015610f9a576020028201919060005260206000209081546001600160a01b03168152600190910190602001808311610f7c57505050505061202990919063ffffffff16565b805161151191600891602090910190612896565b506040516001600160a01b038216907f0a1ee69f55c33d8467c69ca59ce2007a737a88603d75392972520bf67cb513b890600090a250565b6000610957611556611b4f565b84610c22856040518060600160405280602581526020016135af6025913960016000611580611b4f565b6001600160a01b03908116825260208083019390935260409182016000908120918d1681529252902054919063ffffffff611d9a16565b600a5460ff1681565b6115c8611dc6565b600a5460ff166115ea5760405162461bcd60e51b8152600401610984906131d9565b6007546001600160a01b031633146116145760405162461bcd60e51b815260040161098490613269565b600780546001600160a01b0319169055600a805460ff19169055565b606061095b82612071565b6000610957611648611b4f565b8484611c79565b611657611dc6565b61165f611ea3565b6116788161166c84612071565b9063ffffffff61202916565b6001600160a01b0383166000908152600c6020908152604090912082516116a9936001909201929190910190612896565b506001600160a01b038083166000908152600c60209081526040808320938516835260029093019052908120818155906116e6600183018261293b565b5050806001600160a01b0316826001600160a01b03167f5d0275f68d583838a7e2be68e3ef8ac2c1f9d4eeaa4b223360f4cd093a160d7560405160405180910390a35050565b60606008805480602002602001604051908101604052809291908181526020018280548015610938576020028201919060005260206000209081546001600160a01b03168152600190910190602001808311611367575050505050905090565b611794611dc6565b61179c611ea3565b600081136117bc5760405162461bcd60e51b81526004016109849061306e565b600d8190556040517fc4e78b3245dc105eefced18655b978e194ff858545a1080f2888dc3b6ae8df0a906117f1908390612df4565b60405180910390a150565b600b81815481106111f957fe5b611811611c07565b600a5460ff16156118345760405162461bcd60e51b815260040161098490613395565b60016001600160a01b03821660009081526009602052604090205460ff16600281111561185d57fe5b1461187a5760405162461bcd60e51b815260040161098490613425565b6001600160a01b038116600081815260096020526040808220805460ff19169055517fd6b18042563148f38d728c1c4d339ffd515b632d0ad2e1833b822412f3f4d8779190a250565b6118cb611c07565b600a5460ff16156118ee5760405162461bcd60e51b815260040161098490613395565b600680546001600160a01b038381166001600160a01b03198316179092556040519116907f43fcfef38622d6a5b118be09c27a6ed8cbdbfca21f0ea9245412ce8031c0423c906119419084908490612c70565b60405180910390a15050565b6007546001600160a01b031681565b60006002610e75565b6001600160a01b03918216600090815260016020908152604080832093909416825291909152205490565b600061095b82600b8054806020026020016040519081016040528092919081815260200182805480156119ec57602002820191906000526020600020905b81546001600160a01b031681526001909101906020018083116119ce575b50505050506120ea90919063ffffffff16565b611a07611dc6565b611a0f611ea3565b6001600160a01b038281166000818152600c60209081526040808320600190810180549182018155845291832090910180546001600160a01b0319169486169485179055517ff71324fa78e1894b364a1fc8d0535c4208f28c7b380f752afe00c8ce386023fb9190a35050565b600080611a8883610f22565b90506060611a9584612071565b905060005b8151811015611ada57611ad0611ac386848481518110611ab657fe5b6020026020010151610b89565b849063ffffffff61235316565b9250600101611a9a565b50909392505050565b60055461010090046001600160a01b031681565b611aff611dc6565b600a5460ff1615611b225760405162461bcd60e51b815260040161098490612dfd565b600780546001600160a01b03191633179055600a805460ff19166001179055565b670de0b6b3a764000090565b3390565b6001600160a01b038316611b795760405162461bcd60e51b8152600401610984906132d6565b6001600160a01b038216611b9f5760405162461bcd60e51b815260040161098490612f09565b6001600160a01b0380841660008181526001602090815260408083209487168084529490915290819020849055517f8c5be1e5ebec7d5bd14f71427d1e84f3dd0314c0f7b2291e5b200ac8c7c3b92590611bfa908590612df4565b60405180910390a3505050565b6006546001600160a01b03163314611c315760405162461bcd60e51b8152600401610984906133c1565b565b6001600160a01b039182166000908152600c602090815260408083209390941682526002909201909152205490565b600061095b600d548361239990919063ffffffff16565b6001600160a01b038316611c9f5760405162461bcd60e51b815260040161098490613291565b6001600160a01b038216611cc55760405162461bcd60e51b815260040161098490612e29565b611cd08383836123bc565b611d1381604051806060016040528060268152602001613538602691396001600160a01b038616600090815260208190526040902054919063ffffffff611d9a16565b6001600160a01b038085166000908152602081905260408082209390935590841681522054611d48908263ffffffff611f1d16565b6001600160a01b0380841660008181526020819052604090819020939093559151908516907fddf252ad1be2c89b69c2b068fc378daa952ba7f163c4a11628f55a4df523b3ef90611bfa908590612df4565b60008184841115611dbe5760405162461bcd60e51b81526004016109849190612dcd565b505050900390565b60023360009081526009602052604090205460ff166002811115611de657fe5b14611e035760405162461bcd60e51b8152600401610984906130e3565b6005546040516342f6e38960e01b81526101009091046001600160a01b0316906342f6e38990611e37903390600401612c5c565b60206040518083038186803b158015611e4f57600080fd5b505afa158015611e63573d6000803e3d6000fd5b505050506040513d601f19601f82011682018060405250810190611e879190612bb2565b611c315760405162461bcd60e51b815260040161098490613351565b600a5460ff1615611c31576007546001600160a01b03163314611c315760405162461bcd60e51b81526004016109849061309e565b600080611ef0600d54846123c190919063ffffffff16565b9050600083138015611f00575080155b1561095b5760405162461bcd60e51b815260040161098490613009565b600082820183811015610b9d5760405162461bcd60e51b815260040161098490612f4b565b6001600160a01b038216611f685760405162461bcd60e51b815260040161098490613455565b611f74600083836123bc565b600254611f87908263ffffffff611f1d16565b6002556001600160a01b038216600090815260208190526040902054611fb3908263ffffffff611f1d16565b6001600160a01b0383166000818152602081905260408082209390935591519091907fddf252ad1be2c89b69c2b068fc378daa952ba7f163c4a11628f55a4df523b3ef90612002908590612df4565b60405180910390a35050565b6001600160a01b03166000908152600c602052604090205490565b606060008061203885856123e4565b91509150806120595760405162461bcd60e51b815260040161098490612e6c565b6060612065868461244a565b50935061095b92505050565b6001600160a01b0381166000908152600c60209081526040918290206001018054835181840281018401909452808452606093928301828280156120de57602002820191906000526020600020905b81546001600160a01b031681526001909101906020018083116120c0575b50505050509050919050565b6000806120f784846123e4565b95945050505050565b600080805b600b5481101561217f576000600b828154811061211e57fe5b60009182526020822001546001600160a01b0316915061213d8261200e565b131561214a576001909201915b606061215582612071565b80519091501561217557805161217290859063ffffffff611f1d16565b93505b5050600101612105565b50905090565b6001600160a01b038281166000908152600c60209081526040808320938516835260029384018252918290206001908101805484519281161561010002600019011694909404601f8101839004830282018301909352828152606093909290918301828280156122365780601f1061220b57610100808354040283529160200191612236565b820191906000526020600020905b81548152906001019060200180831161221957829003601f168201915b5050505050905092915050565b606061226984848460405180606001604052806029815260200161355e60299139612579565b949350505050565b6001600160a01b0382166122975760405162461bcd60e51b815260040161098490613228565b6122a3826000836123bc565b6122e681604051806060016040528060228152602001613516602291396001600160a01b038516600090815260208190526040902054919063ffffffff611d9a16565b6001600160a01b038316600090815260208190526040902055600254612312908263ffffffff61263a16565b6002556040516000906001600160a01b038416907fddf252ad1be2c89b69c2b068fc378daa952ba7f163c4a11628f55a4df523b3ef90612002908590612df4565b60008282018183128015906123685750838112155b8061237d575060008312801561237d57508381125b610b9d5760405162461bcd60e51b815260040161098490612f82565b6000610b9d6123ae848463ffffffff61267c16565b670de0b6b3a76400006126e7565b505050565b6000610b9d6123de84670de0b6b3a764000063ffffffff61267c16565b836126e7565b81516000908190815b8181101561243757846001600160a01b031686828151811061240b57fe5b60200260200101516001600160a01b0316141561242f579250600191506124439050565b6001016123ed565b50600019600092509250505b9250929050565b81516060906000908084106124715760405162461bcd60e51b815260040161098490612e9b565b60606001820367ffffffffffffffff8111801561248d57600080fd5b506040519080825280602002602001820160405280156124b7578160200160208202803683370190505b50905060005b85811015612505578681815181106124d157fe5b60200260200101518282815181106124e557fe5b6001600160a01b03909216602092830291909101909101526001016124bd565b50600185015b828110156125565786818151811061251f57fe5b602002602001015182600183038151811061253657fe5b6001600160a01b039092166020928302919091019091015260010161250b565b508086868151811061256457fe5b60200260200101519350935050509250929050565b60608247101561259b5760405162461bcd60e51b815260040161098490612fc3565b6125a485612775565b6125c05760405162461bcd60e51b81526004016109849061331a565b60006060866001600160a01b031685876040516125dd9190612c40565b60006040518083038185875af1925050503d806000811461261a576040519150601f19603f3d011682016040523d82523d6000602084013e61261f565b606091505b509150915061262f82828661277b565b979650505050505050565b6000610b9d83836040518060400160405280601e81526020017f536166654d6174683a207375627472616374696f6e206f766572666c6f770000815250611d9a565b60008261268b5750600061095b565b8260001914801561269f5750600160ff1b82145b156126bc5760405162461bcd60e51b815260040161098490613192565b828202828482816126c957fe5b0514610b9d5760405162461bcd60e51b815260040161098490613192565b6000816127065760405162461bcd60e51b81526004016109849061348c565b600160ff1b8314158061271b57508160001914155b6127375760405162461bcd60e51b815260040161098490613201565b6000612749848463ffffffff6127b416565b90506000838518128015612765575082848161276157fe5b0715155b15610b9d57600019019392505050565b3b151590565b6060831561278a575081610b9d565b82511561279a5782518084602001fd5b8160405162461bcd60e51b81526004016109849190612dcd565b6000816127d35760405162461bcd60e51b8152600401610984906133f0565b816000191480156127e75750600160ff1b83145b156128045760405162461bcd60e51b81526004016109849061311a565b600082848161280f57fe5b05949350505050565b828054600181600116156101000203166002900490600052602060002090601f016020900481019282601f106128595782800160ff19823516178555612886565b82800160010185558215612886579182015b8281111561288657823582559160200191906001019061286b565b50612892929150612982565b5090565b8280548282559060005260206000209081019282156128eb579160200282015b828111156128eb57825182546001600160a01b0319166001600160a01b039091161782556020909201916001909101906128b6565b5061289292915061299c565b6040518060a0016040528060006001600160a01b0316815260200160006001600160a01b0316815260200160008152602001600060ff168152602001606081525090565b50805460018160011615610100020316600290046000825580601f10612961575061297f565b601f01602090049060005260206000209081019061297f9190612982565b50565b61094091905b808211156128925760008155600101612988565b61094091905b808211156128925780546001600160a01b03191681556001016129a2565b80356001600160a01b038116811461095b57600080fd5b60008083601f8401126129e8578182fd5b50813567ffffffffffffffff8111156129ff578182fd5b60208301915083602082850101111561244357600080fd5b600060208284031215612a28578081fd5b610b9d83836129c0565b60008060408385031215612a44578081fd5b612a4e84846129c0565b9150612a5d84602085016129c0565b90509250929050565b60008060008060608587031215612a7b578182fd5b8435612a8681613500565b93506020850135612a9681613500565b9250604085013567ffffffffffffffff811115612ab1578283fd5b612abd878288016129d7565b95989497509550505050565b600080600060608486031215612add578283fd5b612ae785856129c0565b9250612af685602086016129c0565b9150604084013590509250925092565b600080600060608486031215612b1a578283fd5b8335612b2581613500565b92506020840135612b3581613500565b929592945050506040919091013590565b60008060408385031215612b58578182fd5b612b6284846129c0565b946020939093013593505050565b60008060008060608587031215612b85578384fd5b8435612b9081613500565b935060208501359250604085013567ffffffffffffffff811115612ab1578283fd5b600060208284031215612bc3578081fd5b81518015158114610b9d578182fd5b600060208284031215612be3578081fd5b5035919050565b60008284528282602086013780602084860101526020601f19601f85011685010190509392505050565b60008151808452612c2c8160208601602086016134d0565b601f01601f19169290920160200192915050565b60008251612c528184602087016134d0565b9190910192915050565b6001600160a01b0391909116815260200190565b6001600160a01b0392831681529116602082015260400190565b6020808252825182820181905260009190848201906040850190845b81811015612ccb5783516001600160a01b031683529284019291840191600101612ca6565b50909695505050505050565b60208082528251828201819052600091906040908185019080840286018301878501865b83811015612d7057603f19898403018552815160a0612d1a82516134c4565b8552818901516001600160a01b031689860152878201518886015260608083015160ff1690860152608080830151818701839052612d5a83880182612c14565b988b019896505050928801925050600101612cfb565b509098975050505050505050565b901515815260200190565b600060208252612269602083018486612bea565b600060408252612db1604083018587612bea565b8281036020840152612dc38185612c14565b9695505050505050565b600060208252610b9d6020830184612c14565b6020810160038310612dee57fe5b91905290565b90815260200190565b602080825260129082015271135d5cdd081b9bdd081899481b1bd8dad95960721b604082015260600190565b60208082526023908201527f45524332303a207472616e7366657220746f20746865207a65726f206164647260408201526265737360e81b606082015260800190565b60208082526015908201527420b2323932b9b9903737ba1034b71030b93930bc9760591b604082015260600190565b60208082526018908201527f496e646578206d757374206265203c2041206c656e6774680000000000000000604082015260600190565b60208082526018908201527f4d6f64756c65206d757374206e6f742062652061646465640000000000000000604082015260600190565b60208082526022908201527f45524332303a20617070726f766520746f20746865207a65726f206164647265604082015261737360f01b606082015260800190565b6020808252601b908201527f536166654d6174683a206164646974696f6e206f766572666c6f770000000000604082015260600190565b60208082526021908201527f5369676e6564536166654d6174683a206164646974696f6e206f766572666c6f6040820152607760f81b606082015260800190565b60208082526026908201527f416464726573733a20696e73756666696369656e742062616c616e636520666f6040820152651c8818d85b1b60d21b606082015260800190565b6020808252601f908201527f5669727475616c20756e697420636f6e76657273696f6e20696e76616c696400604082015260600190565b602080825260149082015273135bd91d5b19481b5d5cdd08189948185919195960621b604082015260600190565b60208082526016908201527504d7573742062652067726561746572207468616e20360541b604082015260600190565b60208082526025908201527f5768656e206c6f636b65642c206f6e6c7920746865206c6f636b65722063616e6040820152640818d85b1b60da1b606082015260800190565b60208082526018908201527f4f6e6c7920746865206d6f64756c652063616e2063616c6c0000000000000000604082015260600190565b60208082526021908201527f5369676e6564536166654d6174683a206469766973696f6e206f766572666c6f6040820152607760f81b606082015260800190565b6020808252601d908201527f4d75737420626520656e61626c6564206f6e20436f6e74726f6c6c6572000000604082015260600190565b60208082526027908201527f5369676e6564536166654d6174683a206d756c7469706c69636174696f6e206f604082015266766572666c6f7760c81b606082015260800190565b6020808252600e908201526d135d5cdd081899481b1bd8dad95960921b604082015260600190565b6020808252600d908201526c125b9d985b1a59081a5b9c1d5d609a1b604082015260600190565b60208082526021908201527f45524332303a206275726e2066726f6d20746865207a65726f206164647265736040820152607360f81b606082015260800190565b6020808252600e908201526d26bab9ba103132903637b1b5b2b960911b604082015260600190565b60208082526025908201527f45524332303a207472616e736665722066726f6d20746865207a65726f206164604082015264647265737360d81b606082015260800190565b60208082526024908201527f45524332303a20617070726f76652066726f6d20746865207a65726f206164646040820152637265737360e01b606082015260800190565b6020808252601d908201527f416464726573733a2063616c6c20746f206e6f6e2d636f6e7472616374000000604082015260600190565b60208082526024908201527f4d6f64756c65206d75737420626520656e61626c6564206f6e20636f6e74726f604082015263363632b960e11b606082015260800190565b60208082526012908201527113db9b1e481dda195b881d5b9b1bd8dad95960721b604082015260600190565b60208082526015908201527413db9b1e481b585b9859d95c8818d85b8818d85b1b605a1b604082015260600190565b6020808252818101527f5369676e6564536166654d6174683a206469766973696f6e206279207a65726f604082015260600190565b6020808252601690820152754d6f64756c65206d7573742062652070656e64696e6760501b604082015260600190565b6020808252601f908201527f45524332303a206d696e7420746f20746865207a65726f206164647265737300604082015260600190565b60208082526010908201526f043616e742064697669646520627920360841b604082015260600190565b60ff91909116815260200190565b6001600160a01b031690565b60005b838110156134eb5781810151838201526020016134d3565b838111156134fa576000848401525b50505050565b6001600160a01b038116811461297f57600080fdfe45524332303a206275726e20616d6f756e7420657863656564732062616c616e636545524332303a207472616e7366657220616d6f756e7420657863656564732062616c616e6365416464726573733a206c6f772d6c6576656c2063616c6c20776974682076616c7565206661696c656445524332303a207472616e7366657220616d6f756e74206578636565647320616c6c6f77616e636545524332303a2064656372656173656420616c6c6f77616e63652062656c6f77207a65726fa2646970667358221220e91f39171c2e0f616a58ac6a58faafccc07cd9acf10f39f214ef577f6749ae4964736f6c634300060a0033a2646970667358221220d6b61fd7777e3c300060f58a739c6d6f542d0a6438f5215680202fa31ea3640864736f6c634300060a0033",
  "linkReferences": {},
  "deployedLinkReferences": {}
}