{
  "_format": "hh-sol-artifact-1",
  "contractName": "SingleIndexModule",
  "sourceName": "contracts/protocol/modules/SingleIndexModule.sol",
  "abi": [
    {
      "inputs": [
        {
          "internalType": "contract IController",
          "name": "_controller",
          "type": "address"
        },
        {
          "internalType": "contract IWETH",
          "name": "_weth",
          "type": "address"
        },
        {
          "internalType": "address",
          "name": "_uniswapRouter",
          "type": "address"
        },
        {
          "internalType": "address",
          "name": "_sushiswapRouter",
          "type": "address"
        },
        {
          "internalType": "address",
          "name": "_balancerProxy",
          "type": "address"
        }
      ],
      "stateMutability": "nonpayable",
      "type": "constructor"
    },
    {
      "anonymous": false,
      "inputs": [
        {
          "indexed": true,
          "internalType": "bool",
          "name": "_status",
          "type": "bool"
        }
      ],
      "name": "AnyoneTradeUpdated",
      "type": "event"
    },
    {
      "anonymous": false,
      "inputs": [
        {
          "indexed": true,
          "internalType": "address",
          "name": "_component",
          "type": "address"
        },
        {
          "indexed": false,
          "internalType": "uint256",
          "name": "_newExchange",
          "type": "uint256"
        }
      ],
      "name": "AssetExchangeUpdated",
      "type": "event"
    },
    {
      "anonymous": false,
      "inputs": [
        {
          "indexed": true,
          "internalType": "address",
          "name": "_component",
          "type": "address"
        },
        {
          "indexed": false,
          "internalType": "uint256",
          "name": "_newCoolOffPeriod",
          "type": "uint256"
        }
      ],
      "name": "CoolOffPeriodUpdated",
      "type": "event"
    },
    {
      "anonymous": false,
      "inputs": [
        {
          "indexed": true,
          "internalType": "address",
          "name": "_component",
          "type": "address"
        },
        {
          "indexed": false,
          "internalType": "uint256",
          "name": "_newUnit",
          "type": "uint256"
        },
        {
          "indexed": false,
          "internalType": "uint256",
          "name": "_positionMultiplier",
          "type": "uint256"
        }
      ],
      "name": "TargetUnitsUpdated",
      "type": "event"
    },
    {
      "anonymous": false,
      "inputs": [
        {
          "indexed": true,
          "internalType": "address",
          "name": "_executor",
          "type": "address"
        },
        {
          "indexed": true,
          "internalType": "address",
          "name": "_sellComponent",
          "type": "address"
        },
        {
          "indexed": true,
          "internalType": "address",
          "name": "_buyComponent",
          "type": "address"
        },
        {
          "indexed": false,
          "internalType": "uint256",
          "name": "_amountSold",
          "type": "uint256"
        },
        {
          "indexed": false,
          "internalType": "uint256",
          "name": "_amountBought",
          "type": "uint256"
        }
      ],
      "name": "TradeExecuted",
      "type": "event"
    },
    {
      "anonymous": false,
      "inputs": [
        {
          "indexed": true,
          "internalType": "address",
          "name": "_component",
          "type": "address"
        },
        {
          "indexed": false,
          "internalType": "uint256",
          "name": "_newMaximum",
          "type": "uint256"
        }
      ],
      "name": "TradeMaximumUpdated",
      "type": "event"
    },
    {
      "anonymous": false,
      "inputs": [
        {
          "indexed": true,
          "internalType": "address",
          "name": "_trader",
          "type": "address"
        },
        {
          "indexed": false,
          "internalType": "bool",
          "name": "_status",
          "type": "bool"
        }
      ],
      "name": "TraderStatusUpdated",
      "type": "event"
    },
    {
      "inputs": [],
      "name": "anyoneTrade",
      "outputs": [
        {
          "internalType": "bool",
          "name": "",
          "type": "bool"
        }
      ],
      "stateMutability": "view",
      "type": "function",
      "gas": "0xaeb690"
    },
    {
      "inputs": [
        {
          "internalType": "address",
          "name": "",
          "type": "address"
        }
      ],
      "name": "assetInfo",
      "outputs": [
        {
          "internalType": "uint256",
          "name": "targetUnit",
          "type": "uint256"
        },
        {
          "internalType": "uint256",
          "name": "maxSize",
          "type": "uint256"
        },
        {
          "internalType": "uint256",
          "name": "coolOffPeriod",
          "type": "uint256"
        },
        {
          "internalType": "uint256",
          "name": "lastTradeTimestamp",
          "type": "uint256"
        },
        {
          "internalType": "uint256",
          "name": "exchange",
          "type": "uint256"
        }
      ],
      "stateMutability": "view",
      "type": "function",
      "gas": "0xaeb690"
    },
    {
      "inputs": [],
      "name": "balancerProxy",
      "outputs": [
        {
          "internalType": "address",
          "name": "",
          "type": "address"
        }
      ],
      "stateMutability": "view",
      "type": "function",
      "gas": "0xaeb690"
    },
    {
      "inputs": [],
      "name": "controller",
      "outputs": [
        {
          "internalType": "contract IController",
          "name": "",
          "type": "address"
        }
      ],
      "stateMutability": "view",
      "type": "function",
      "gas": "0xaeb690"
    },
    {
      "inputs": [],
      "name": "getRebalanceComponents",
      "outputs": [
        {
          "internalType": "address[]",
          "name": "",
          "type": "address[]"
        }
      ],
      "stateMutability": "view",
      "type": "function",
      "gas": "0xaeb690"
    },
    {
      "inputs": [
        {
          "internalType": "address[]",
          "name": "_components",
          "type": "address[]"
        }
      ],
      "name": "getTargetUnits",
      "outputs": [
        {
          "internalType": "uint256[]",
          "name": "",
          "type": "uint256[]"
        }
      ],
      "stateMutability": "view",
      "type": "function",
      "gas": "0xaeb690"
    },
    {
      "inputs": [],
      "name": "index",
      "outputs": [
        {
          "internalType": "contract ISetToken",
          "name": "",
          "type": "address"
        }
      ],
      "stateMutability": "view",
      "type": "function",
      "gas": "0xaeb690"
    },
    {
      "inputs": [
        {
          "internalType": "contract ISetToken",
          "name": "_index",
          "type": "address"
        }
      ],
      "name": "initialize",
      "outputs": [],
      "stateMutability": "nonpayable",
      "type": "function",
      "gas": "0xaeb690"
    },
    {
      "inputs": [],
      "name": "positionMultiplier",
      "outputs": [
        {
          "internalType": "uint256",
          "name": "",
          "type": "uint256"
        }
      ],
      "stateMutability": "view",
      "type": "function",
      "gas": "0xaeb690"
    },
    {
      "inputs": [],
      "name": "raiseAssetTargets",
      "outputs": [],
      "stateMutability": "nonpayable",
      "type": "function",
      "gas": "0xaeb690"
    },
    {
      "inputs": [
        {
          "internalType": "uint256",
          "name": "",
          "type": "uint256"
        }
      ],
      "name": "rebalanceComponents",
      "outputs": [
        {
          "internalType": "address",
          "name": "",
          "type": "address"
        }
      ],
      "stateMutability": "view",
      "type": "function",
      "gas": "0xaeb690"
    },
    {
      "inputs": [],
      "name": "removeModule",
      "outputs": [],
      "stateMutability": "nonpayable",
      "type": "function",
      "gas": "0xaeb690"
    },
    {
      "inputs": [
        {
          "internalType": "address[]",
          "name": "_components",
          "type": "address[]"
        },
        {
          "internalType": "uint256[]",
          "name": "_coolOffPeriods",
          "type": "uint256[]"
        }
      ],
      "name": "setCoolOffPeriods",
      "outputs": [],
      "stateMutability": "nonpayable",
      "type": "function",
      "gas": "0xaeb690"
    },
    {
      "inputs": [
        {
          "internalType": "address[]",
          "name": "_components",
          "type": "address[]"
        },
        {
          "internalType": "uint256[]",
          "name": "_exchanges",
          "type": "uint256[]"
        }
      ],
      "name": "setExchanges",
      "outputs": [],
      "stateMutability": "nonpayable",
      "type": "function",
      "gas": "0xaeb690"
    },
    {
      "inputs": [
        {
          "internalType": "address[]",
          "name": "_components",
          "type": "address[]"
        },
        {
          "internalType": "uint256[]",
          "name": "_tradeMaximums",
          "type": "uint256[]"
        }
      ],
      "name": "setTradeMaximums",
      "outputs": [],
      "stateMutability": "nonpayable",
      "type": "function",
      "gas": "0xaeb690"
    },
    {
      "inputs": [
        {
          "internalType": "address[]",
          "name": "_newComponents",
          "type": "address[]"
        },
        {
          "internalType": "uint256[]",
          "name": "_newComponentsTargetUnits",
          "type": "uint256[]"
        },
        {
          "internalType": "uint256[]",
          "name": "_oldComponentsTargetUnits",
          "type": "uint256[]"
        },
        {
          "internalType": "uint256",
          "name": "_positionMultiplier",
          "type": "uint256"
        }
      ],
      "name": "startRebalance",
      "outputs": [],
      "stateMutability": "nonpayable",
      "type": "function",
      "gas": "0xaeb690"
    },
    {
      "inputs": [],
      "name": "sushiswapRouter",
      "outputs": [
        {
          "internalType": "address",
          "name": "",
          "type": "address"
        }
      ],
      "stateMutability": "view",
      "type": "function",
      "gas": "0xaeb690"
    },
    {
      "inputs": [
        {
          "internalType": "address",
          "name": "_component",
          "type": "address"
        }
      ],
      "name": "trade",
      "outputs": [],
      "stateMutability": "nonpayable",
      "type": "function",
      "gas": "0xaeb690"
    },
    {
      "inputs": [
        {
          "internalType": "address",
          "name": "",
          "type": "address"
        }
      ],
      "name": "tradeAllowList",
      "outputs": [
        {
          "internalType": "bool",
          "name": "",
          "type": "bool"
        }
      ],
      "stateMutability": "view",
      "type": "function",
      "gas": "0xaeb690"
    },
    {
      "inputs": [
        {
          "internalType": "address",
          "name": "_component",
          "type": "address"
        }
      ],
      "name": "tradeRemainingWETH",
      "outputs": [],
      "stateMutability": "nonpayable",
      "type": "function",
      "gas": "0xaeb690"
    },
    {
      "inputs": [],
      "name": "uniswapRouter",
      "outputs": [
        {
          "internalType": "address",
          "name": "",
          "type": "address"
        }
      ],
      "stateMutability": "view",
      "type": "function",
      "gas": "0xaeb690"
    },
    {
      "inputs": [
        {
          "internalType": "bool",
          "name": "_status",
          "type": "bool"
        }
      ],
      "name": "updateAnyoneTrade",
      "outputs": [],
      "stateMutability": "nonpayable",
      "type": "function",
      "gas": "0xaeb690"
    },
    {
      "inputs": [
        {
          "internalType": "address[]",
          "name": "_traders",
          "type": "address[]"
        },
        {
          "internalType": "bool[]",
          "name": "_statuses",
          "type": "bool[]"
        }
      ],
      "name": "updateTraderStatus",
      "outputs": [],
      "stateMutability": "nonpayable",
      "type": "function",
      "gas": "0xaeb690"
    },
    {
      "inputs": [],
      "name": "weth",
      "outputs": [
        {
          "internalType": "contract IWETH",
          "name": "",
          "type": "address"
        }
      ],
      "stateMutability": "view",
      "type": "function",
      "gas": "0xaeb690"
    }
  ],
  "bytecode": "0x60806040523480156200001157600080fd5b5060405162003f4c38038062003f4c83398101604081905262000034916200009b565b600080546001600160a01b03199081166001600160a01b0397881617909155600180556007805482169587169590951790945560088054851693861693909317909255600980548416918516919091179055600a8054909216921691909117905562000133565b600080600080600060a08688031215620000b3578081fd5b8551620000c0816200011a565b6020870151909550620000d3816200011a565b6040870151909450620000e6816200011a565b6060870151909350620000f9816200011a565b60808701519092506200010c816200011a565b809150509295509295909350565b6001600160a01b03811681146200013057600080fd5b50565b613e0980620001436000396000f3fe608060405234801561001057600080fd5b50600436106101585760003560e01c806395550981116100c3578063d1472f1d1161007c578063d1472f1d146102b8578063d1bfa023146102cb578063d1da9334146102de578063e9240c2d146102f1578063eebd30ff146102f9578063f77c47911461030157610158565b80639555098114610240578063a6d68db214610253578063b46f72a414610268578063c39dba4714610288578063c4d66de814610290578063cbeef022146102a357610158565b80635230c396116101155780635230c396146101d15780635a41aeb2146101e65780636d182ed6146101f9578063735de9f71461020c578063847ef08d146102145780638b0dcb4e1461021c57610158565b8063056ba0561461015d5780632986c0e5146101725780633fc8cef31461019057806344385891146101985780634afdd22f146101ab5780634e362459146101be575b600080fd5b61017061016b366004613007565b610309565b005b61017a6103de565b604051610187919061347c565b60405180910390f35b61017a6103f2565b6101706101a63660046130e6565b610401565b6101706101b93660046130e6565b610532565b6101706101cc36600461334f565b610633565b6101d961068b565b6040516101879190613bd0565b6101706101f43660046130e6565b610691565b61017061020736600461307e565b610792565b61017a6108fe565b61017061090d565b61022f61022a366004613007565b61090f565b604051610187959493929190613c23565b61017a61024e3660046133d9565b61093e565b61025b610965565b6040516101879190613501565b61027b61027636600461303f565b6109c8565b6040516101879190613514565b61017a610b00565b61017061029e366004613007565b610b0f565b6102ab610cb8565b6040516101879190613558565b6101706102c6366004613007565b610cc1565b6102ab6102d9366004613007565b610f22565b6101706102ec366004613111565b610f37565b61017a6111fc565b61017061120b565b61017a611338565b600260015414156103355760405162461bcd60e51b815260040161032c90613b75565b60405180910390fd5b60026001553361034481611347565b6103605760405162461bcd60e51b815260040161032c906136b6565b33321461037f5760405162461bcd60e51b815260040161032c90613602565b6103888261137b565b600080610394846114bb565b9150915081156103ad576103a884826116ab565b6103b7565b6103b78482611812565b5050506001600160a01b031660009081526002602052604090204260039091015560018055565b60065461010090046001600160a01b031681565b6007546001600160a01b031681565b60065461010090046001600160a01b031661041b8161197f565b610427858585856119cd565b60005b8481101561052a57600084848381811061044057fe5b60200291909101359150506004811061046b5760405162461bcd60e51b815260040161032c90613681565b84848381811061047757fe5b905060200201356002600089898681811061048e57fe5b90506020020160208101906104a39190613007565b6001600160a01b031681526020810191909152604001600020600401558686838181106104cc57fe5b90506020020160208101906104e19190613007565b6001600160a01b03167f6cda250e3510d021217be0a4cf0d0cafcf6a1d8fd88758881e22dda86026565a826040516105199190613bd0565b60405180910390a25060010161042a565b505050505050565b60065461010090046001600160a01b031661054c8161197f565b610558858585856119cd565b60005b8481101561052a5783838281811061056f57fe5b905060200201356002600088888581811061058657fe5b905060200201602081019061059b9190613007565b6001600160a01b031681526020810191909152604001600020600101558585828181106105c457fe5b90506020020160208101906105d99190613007565b6001600160a01b03167f8ed585a5166d974578dfb366fb290f0ebbd201018644122adaef2f4f224f375485858481811061060f57fe5b905060200201356040516106239190613bd0565b60405180910390a260010161055b565b60065461010090046001600160a01b031661064d8161197f565b6006805460ff19168315159081179091556040517f0fc54d8c9cf44d4c689906554c60dce4f6b9fb1ff4e4b362349967b912ec230090600090a25050565b60045481565b60065461010090046001600160a01b03166106ab8161197f565b6106b7858585856119cd565b60005b8481101561052a578383828181106106ce57fe5b90506020020135600260008888858181106106e557fe5b90506020020160208101906106fa9190613007565b6001600160a01b0316815260208101919091526040016000206002015585858281811061072357fe5b90506020020160208101906107389190613007565b6001600160a01b03167fa06538565669c334f2748499277e2747fc102fe777bcec613a9f9836cc96030e85858481811061076e57fe5b905060200201356040516107829190613bd0565b60405180910390a26001016106ba565b60065461010090046001600160a01b03166107ac8161197f565b8382146107cb5760405162461bcd60e51b815260040161032c906135d3565b836107e85760405162461bcd60e51b815260040161032c906139f5565b610824858580806020026020016040519081016040528093929190818152602001838360200280828437600092019190915250611a6892505050565b156108415760405162461bcd60e51b815260040161032c90613948565b60005b8481101561052a57600086868381811061085a57fe5b905060200201602081019061086f9190613007565b9050600085858481811061087f57fe5b9050602002016020810190610894919061334f565b6001600160a01b03831660008181526005602052604090819020805460ff191684151517905551919250907f2151742bf02141f8d0d719bc4154470f2b1f5111a182b4170a872b6714111261906108ec908490613558565b60405180910390a25050600101610844565b6008546001600160a01b031681565b565b600260208190526000918252604090912080546001820154928201546003830154600490930154919392909185565b6003818154811061094b57fe5b6000918252602090912001546001600160a01b0316905081565b606060038054806020026020016040519081016040528092919081815260200182805480156109bd57602002820191906000526020600020905b81546001600160a01b0316815260019091019060200180831161099f575b505050505090505b90565b60606000610a5a600660019054906101000a90046001600160a01b03166001600160a01b0316635230c3966040518163ffffffff1660e01b815260040160206040518083038186803b158015610a1d57600080fd5b505afa158015610a31573d6000803e3d6000fd5b505050506040513d601f19601f82011682018060405250810190610a5591906133c1565b611b17565b90506060836001600160401b0381118015610a7457600080fd5b50604051908082528060200260200182016040528015610a9e578160200160208202803683370190505b50905060005b84811015610af557610ad6868683818110610abb57fe5b9050602002016020810190610ad09190613007565b84611b3d565b828281518110610ae257fe5b6020908102919091010152600101610aa4565b509150505b92915050565b600a546001600160a01b031681565b8033610b1b8282611b82565b82610b2581611ba8565b60065461010090046001600160a01b031615610b535760405162461bcd60e51b815260040161032c90613919565b6060846001600160a01b031663802758606040518163ffffffff1660e01b815260040160006040518083038186803b158015610b8e57600080fd5b505afa158015610ba2573d6000803e3d6000fd5b505050506040513d6000823e601f3d908101601f19168201604052610bca919081019061324f565b905060005b8151811015610c3657610be0612e4b565b828281518110610bec57fe5b60200260200101519050610c038160400151611b17565b81516001600160a01b03908116600090815260026020526040808220939093559251168252812060030155600101610bcf565b5084600660016101000a8154816001600160a01b0302191690836001600160a01b03160217905550846001600160a01b0316630ffe0f1e6040518163ffffffff1660e01b8152600401600060405180830381600087803b158015610c9957600080fd5b505af1158015610cad573d6000803e3d6000fd5b505050505050505050565b60065460ff1681565b60026001541415610ce45760405162461bcd60e51b815260040161032c90613b75565b600260015533610cf381611347565b610d0f5760405162461bcd60e51b815260040161032c906136b6565b333214610d2e5760405162461bcd60e51b815260040161032c90613602565b610d36611c69565b610d525760405162461bcd60e51b815260040161032c90613b23565b610d5b8261137b565b6000610d66836114bb565b6006546040516370a0823160e01b8152919350600092506001600160a01b03808716926370a0823192610da392610100909104169060040161347c565b60206040518083038186803b158015610dbb57600080fd5b505afa158015610dcf573d6000803e3d6000fd5b505050506040513d601f19601f82011682018060405250810190610df391906133c1565b6007546006546040516370a0823160e01b81529293506000926001600160a01b03928316926370a0823192610e34926101009091049091169060040161347c565b60206040518083038186803b158015610e4c57600080fd5b505afa158015610e60573d6000803e3d6000fd5b505050506040513d601f19601f82011682018060405250810190610e8491906133c1565b6007546001600160a01b03878116600090815260026020526040902060040154929350610eba9291169087906001908590611d58565b600754600090610ed5906001600160a01b0316878486611ef3565b915050838110610ef75760405162461bcd60e51b815260040161032c9061385e565b5050506001600160a01b03909216600090815260026020526040902042600390910155505060018055565b60056020526000908152604090205460ff1681565b60065461010090046001600160a01b0316610f518161197f565b868514610f705760405162461bcd60e51b815260040161032c906135d3565b6060600660019054906101000a90046001600160a01b03166001600160a01b03166399d50d5d6040518163ffffffff1660e01b815260040160006040518083038186803b158015610fc057600080fd5b505afa158015610fd4573d6000803e3d6000fd5b505050506040513d6000823e601f3d908101601f19168201604052610ffc91908101906131af565b8051909150841461101f5760405162461bcd60e51b815260040161032c9061379c565b60606110668a8a80806020026020016040519081016040528093929190818152602001838360200280828437600092019190915250869392505063ffffffff612053169050565b905060606110e089898080602002602001604051908101604052809392919081815260200183836020028082843760009201919091525050604080516020808d0282810182019093528c82529093508c92508b918291850190849080828437600092019190915250929392505063ffffffff612144169050565b90506110eb82611a68565b156111085760405162461bcd60e51b815260040161032c906138a1565b60005b82518110156111d557600083828151811061112257fe5b60200260200101519050600083838151811061113a57fe5b60209081029190910101516007549091506001600160a01b03838116911614156111765760405162461bcd60e51b815260040161032c9061375b565b6001600160a01b03821660008181526002602052604090819020839055517ffdd15d607f52297e9a37790659c4861b2aa4d97f31337e60a84b4dca6acc99cd906111c39084908c90613bd9565b60405180910390a2505060010161110b565b5081516111e9906003906020850190612e8f565b5050506004929092555050505050505050565b6009546001600160a01b031681565b6002600154141561122e5760405162461bcd60e51b815260040161032c90613b75565b60026001553361123d81611347565b6112595760405162461bcd60e51b815260040161032c906136b6565b611261612211565b80156112f757506006546007546040516366cb8d2f60e01b815260009261010090046001600160a01b03908116926366cb8d2f926112a5929091169060040161347c565b60206040518083038186803b1580156112bd57600080fd5b505afa1580156112d1573d6000803e3d6000fd5b505050506040513d601f19601f820116820180604052508101906112f591906133c1565b135b6113135760405162461bcd60e51b815260040161032c90613576565b60045461132e90670de998704354400063ffffffff6122f716565b6004555060018055565b6000546001600160a01b031681565b60065460009060ff168061137357506001600160a01b03821660009081526005602052604090205460ff165b90505b919050565b6113e88160038054806020026020016040519081016040528092919081815260200182805480156113d557602002820191906000526020600020905b81546001600160a01b031681526001909101906020018083116113b7575b505050505061231590919063ffffffff16565b6114045760405162461bcd60e51b815260040161032c9061397f565b61140c612ef0565b506001600160a01b038116600090815260026020818152604092839020835160a08101855281548152600182015492810192909252918201549281019290925260038101546060830152600401546080820181905261147d5760405162461bcd60e51b815260040161032c906137f2565b426114998260400151836060015161232b90919063ffffffff16565b11156114b75760405162461bcd60e51b815260040161032c90613aee565b5050565b6000806000600660019054906101000a90046001600160a01b03166001600160a01b03166318160ddd6040518163ffffffff1660e01b815260040160206040518083038186803b15801561150e57600080fd5b505afa158015611522573d6000803e3d6000fd5b505050506040513d601f19601f8201168201806040525081019061154691906133c1565b6001600160a01b03808616600090815260026020908152604080832060010154600654825163291861cb60e11b81529251969750909593946115ab946101009092041692635230c3969260048082019391829003018186803b158015610a1d57600080fd5b6006546040516366cb8d2f60e01b81529192506000916116009161010090046001600160a01b0316906366cb8d2f906115e8908b9060040161347c565b60206040518083038186803b158015610a1d57600080fd5b9050600061160e8884611b3d565b9050808214156116305760405162461bcd60e51b815260040161032c906139c9565b6000611642868463ffffffff61235016565b90506000611656878463ffffffff61236216565b9050818111611686576000611681611674848463ffffffff6123b916565b889063ffffffff6123fb16565b61169b565b600161169b611674838563ffffffff6123b916565b9850985050505050505050915091565b6006546040516370a0823160e01b81526000916001600160a01b03808616926370a08231926116e492610100909104169060040161347c565b60206040518083038186803b1580156116fc57600080fd5b505afa158015611710573d6000803e3d6000fd5b505050506040513d601f19601f8201168201806040525081019061173491906133c1565b6007546006546040516370a0823160e01b81529293506000926001600160a01b03928316926370a0823192611775926101009091049091169060040161347c565b60206040518083038186803b15801561178d57600080fd5b505afa1580156117a1573d6000803e3d6000fd5b505050506040513d601f19601f820116820180604052508101906117c591906133c1565b6007546001600160a01b038681166000908152600260205260408120600401549394506117fa93919092169187918790611d58565b60075461052a906001600160a01b0316858385611ef3565b6007546006546040516370a0823160e01b81526000926001600160a01b03908116926370a0823192611850926101009092049091169060040161347c565b60206040518083038186803b15801561186857600080fd5b505afa15801561187c573d6000803e3d6000fd5b505050506040513d601f19601f820116820180604052508101906118a091906133c1565b6006546040516370a0823160e01b81529192506000916001600160a01b03808716926370a08231926118de926101009092049091169060040161347c565b60206040518083038186803b1580156118f657600080fd5b505afa15801561190a573d6000803e3d6000fd5b505050506040513d601f19601f8201168201806040525081019061192e91906133c1565b6007546001600160a01b0380871660009081526002602052604090206004015492935061196692879291909116906001908790611d58565b60075461052a9085906001600160a01b03168385611ef3565b6119898133612411565b6119a55760405162461bcd60e51b815260040161032c90613ab7565b6119ae8161249f565b6119ca5760405162461bcd60e51b815260040161032c90613639565b50565b8281146119ec5760405162461bcd60e51b815260040161032c906135d3565b82611a095760405162461bcd60e51b815260040161032c906139f5565b611a45848480806020026020016040519081016040528093929190818152602001838360200280828437600092019190915250611a6892505050565b15611a625760405162461bcd60e51b815260040161032c906138a1565b50505050565b600080825111611a8a5760405162461bcd60e51b815260040161032c90613bac565b60005b6001835103811015611b0e576000838281518110611aa757fe5b6020026020010151905060008260010190505b8451811015611b0457848181518110611acf57fe5b60200260200101516001600160a01b0316826001600160a01b03161415611afc5760019350505050611376565b600101611aba565b5050600101611a8d565b50600092915050565b600080821215611b395760405162461bcd60e51b815260040161032c90613829565b5090565b6004546001600160a01b0383166000908152600260205260408120549091611b7b91611b6f908563ffffffff6125a316565b9063ffffffff6125dd16565b9392505050565b611b8c8282612411565b6114b75760405162461bcd60e51b815260040161032c90613ab7565b600054604051631d3af8fb60e21b81526001600160a01b03909116906374ebe3ec90611bd890849060040161347c565b60206040518083038186803b158015611bf057600080fd5b505afa158015611c04573d6000803e3d6000fd5b505050506040513d601f19601f82011682018060405250810190611c28919061336b565b611c445760405162461bcd60e51b815260040161032c90613a74565b611c4d8161261f565b6119ca5760405162461bcd60e51b815260040161032c90613724565b600080611cbd600660019054906101000a90046001600160a01b03166001600160a01b0316635230c3966040518163ffffffff1660e01b815260040160206040518083038186803b158015610a1d57600080fd5b905060005b600354811015611d4f57600060038281548110611cdb57fe5b60009182526020822001546006546040516366cb8d2f60e01b81526001600160a01b039283169450611d2592610100909204909116906366cb8d2f906115e890869060040161347c565b611d2f8386611b3d565b1090508015611d455760009450505050506109c5565b5050600101611cc2565b50600191505090565b6007546006546040516370a0823160e01b81526000926001600160a01b03908116926370a0823192611d96926101009092049091169060040161347c565b60206040518083038186803b158015611dae57600080fd5b505afa158015611dc2573d6000803e3d6000fd5b505050506040513d601f19601f82011682018060405250810190611de691906133c1565b90506000606060038414611e0657611e01888888888861264e565b611e13565b611e1388888888876127d4565b60075491935091506000906001600160a01b038a8116911614611e365785611e38565b835b600654909150611e589061010090046001600160a01b03168a85846128a1565b6006546040516347b7819960e11b81526101009091046001600160a01b031690638f6f033290611e9190869060009087906004016134da565b600060405180830381600087803b158015611eab57600080fd5b505af1158015611ebf573d6000803e3d6000fd5b505050506040513d6000823e601f3d908101601f19168201604052611ee79190810190613387565b50505050505050505050565b6000806000600660019054906101000a90046001600160a01b03166001600160a01b03166318160ddd6040518163ffffffff1660e01b815260040160206040518083038186803b158015611f4657600080fd5b505afa158015611f5a573d6000803e3d6000fd5b505050506040513d601f19601f82011682018060405250810190611f7e91906133c1565b600654909150600090611fa19061010090046001600160a01b0316898489612968565b5050600654909150600090611fc69061010090046001600160a01b0316898589612968565b50909150611fdc9050878363ffffffff6123b916565b9450611fee818763ffffffff6123b916565b9350876001600160a01b0316896001600160a01b0316336001600160a01b03167f3fcfb2f2e0146d5be7268f9e4cd3c4c0ce3428f68805db227b7fc378db7519ac888860405161203f929190613bd9565b60405180910390a450505094509492505050565b8151815160609190828183016001600160401b038111801561207457600080fd5b5060405190808252806020026020018201604052801561209e578160200160208202803683370190505b50905060005b838110156120ec578681815181106120b857fe5b60200260200101518282815181106120cc57fe5b6001600160a01b03909216602092830291909101909101526001016120a4565b5060005b8281101561213a5785818151811061210457fe5b6020026020010151828286018151811061211a57fe5b6001600160a01b03909216602092830291909101909101526001016120f0565b5095945050505050565b8151815160609190828183016001600160401b038111801561216557600080fd5b5060405190808252806020026020018201604052801561218f578160200160208202803683370190505b50905060005b838110156121d0578681815181106121a957fe5b60200260200101518282815181106121bd57fe5b6020908102919091010152600101612195565b5060005b8281101561213a578581815181106121e857fe5b602002602001015182828601815181106121fe57fe5b60209081029190910101526001016121d4565b600080612265600660019054906101000a90046001600160a01b03166001600160a01b0316635230c3966040518163ffffffff1660e01b815260040160206040518083038186803b158015610a1d57600080fd5b905060005b600354811015611d4f5760006003828154811061228357fe5b60009182526020822001546006546040516366cb8d2f60e01b81526001600160a01b0392831694506122cd92610100909204909116906366cb8d2f906115e890869060040161347c565b6122d78386611b3d565b14801591506122ed5760009450505050506109c5565b505060010161226a565b6000611b7b82611b6f85670de0b6b3a764000063ffffffff6125a316565b6000806123228484612a59565b95945050505050565b600082820183811015611b7b5760405162461bcd60e51b815260040161032c906136ed565b6000611b7b838363ffffffff612abf16565b600082158061236f575081155b1561237c57506000610afa565b611b7b60016123ad670de0b6b3a7640000611b6f836123a1898963ffffffff6125a316565b9063ffffffff6123b916565b9063ffffffff61232b16565b6000611b7b83836040518060400160405280601e81526020017f536166654d6174683a207375627472616374696f6e206f766572666c6f770000815250612add565b600081831061240a5781611b7b565b5090919050565b6000816001600160a01b0316836001600160a01b031663481c6a756040518163ffffffff1660e01b815260040160206040518083038186803b15801561245657600080fd5b505afa15801561246a573d6000803e3d6000fd5b505050506040513d601f19601f8201168201806040525081019061248e9190613023565b6001600160a01b0316149392505050565b60008054604051631d3af8fb60e21b81526001600160a01b03909116906374ebe3ec906124d090859060040161347c565b60206040518083038186803b1580156124e857600080fd5b505afa1580156124fc573d6000803e3d6000fd5b505050506040513d601f19601f82011682018060405250810190612520919061336b565b801561137357506040516335fc6c9f60e21b81526001600160a01b0383169063d7f1b27c9061255390309060040161347c565b60206040518083038186803b15801561256b57600080fd5b505afa15801561257f573d6000803e3d6000fd5b505050506040513d601f19601f82011682018060405250810190611373919061336b565b6000826125b257506000610afa565b828202828482816125bf57fe5b0414611b7b5760405162461bcd60e51b815260040161032c906138d8565b6000611b7b83836040518060400160405280601a81526020017f536166654d6174683a206469766973696f6e206279207a65726f000000000000815250612b09565b6040516353bae5f760e01b81526000906001600160a01b038316906353bae5f79061255390309060040161347c565b60006060816001841461266c576009546001600160a01b0316612679565b6008546001600160a01b03165b604080516002808252606080830184529394508392602083019080368337019050509050600088156126c957604051806080016040528060438152602001613d14604391399250600190506126ef565b604051806080016040528060438152602001613d576043913992506126ec612b40565b90505b8a826000815181106126fd57fe5b60200260200101906001600160a01b031690816001600160a01b031681525050898260018151811061272b57fe5b6001600160a01b03928316602091820292909201015260065460609185918b9185918791610100909104166127674260b463ffffffff61232b16565b60405160240161277b959493929190613be7565b60408051601f19818403018152908290529161279691613460565b6040519081900390206020820180516001600160e01b03166001600160e01b0319909216919091179052949650939450505050509550959350505050565b600a546000906060906001600160a01b031681838761280c576040518060600160405280603a8152602001613d9a603a913986612828565b604051806060016040528060398152602001613cdb6039913960015b915091506060828b8b8a856003604051602401612849959493929190613490565b60408051601f19818403018152908290529161286491613460565b6040519081900390206020820180516001600160e01b03166001600160e01b03199092169190911790529395509293505050509550959350505050565b606082826040516024016128b69291906134c1565b60408051601f198184030181529181526020820180516001600160e01b031663095ea7b360e01b179052516347b7819960e11b81529091506001600160a01b03861690638f6f03329061291290879060009086906004016134da565b600060405180830381600087803b15801561292c57600080fd5b505af1158015612940573d6000803e3d6000fd5b505050506040513d6000823e601f3d908101601f1916820160405261052a9190810190613387565b600080600080866001600160a01b03166370a08231896040518263ffffffff1660e01b815260040161299a919061347c565b60206040518083038186803b1580156129b257600080fd5b505afa1580156129c6573d6000803e3d6000fd5b505050506040513d601f19601f820116820180604052508101906129ea91906133c1565b90506000612a1d896001600160a01b03166366cb8d2f8a6040518263ffffffff1660e01b81526004016115e8919061347c565b905060008215612a3a57612a3388888585612b46565b9050612a3e565b5060005b612a498a8a83612b95565b9199909850909650945050505050565b81516000908190815b81811015612aac57846001600160a01b0316868281518110612a8057fe5b60200260200101516001600160a01b03161415612aa457925060019150612ab89050565b600101612a62565b50600019600092509250505b9250929050565b6000611b7b670de0b6b3a7640000611b6f858563ffffffff6125a316565b60008184841115612b015760405162461bcd60e51b815260040161032c9190613563565b505050900390565b60008183612b2a5760405162461bcd60e51b815260040161032c9190613563565b506000838581612b3657fe5b0495945050505050565b60001990565b600080612b69612b5c848863ffffffff612abf16565b869063ffffffff6123b916565b9050612b8b86612b7f868463ffffffff6123b916565b9063ffffffff6122f716565b9695505050505050565b6000612ba18484612d13565b905080158015612bb15750600082115b15612c2857612bc08484612d9a565b612c23576040516304e3532760e41b81526001600160a01b03851690634e35327090612bf090869060040161347c565b600060405180830381600087803b158015612c0a57600080fd5b505af1158015612c1e573d6000803e3d6000fd5b505050505b612ca5565b808015612c33575081155b15612ca557612c428484612d9a565b612ca557604051636f86c89760e01b81526001600160a01b03851690636f86c89790612c7290869060040161347c565b600060405180830381600087803b158015612c8c57600080fd5b505af1158015612ca0573d6000803e3d6000fd5b505050505b836001600160a01b0316632ba57d1784612cbe85612e26565b6040518363ffffffff1660e01b8152600401612cdb9291906134c1565b600060405180830381600087803b158015612cf557600080fd5b505af1158015612d09573d6000803e3d6000fd5b5050505050505050565b600080836001600160a01b03166366cb8d2f846040518263ffffffff1660e01b8152600401612d42919061347c565b60206040518083038186803b158015612d5a57600080fd5b505afa158015612d6e573d6000803e3d6000fd5b505050506040513d601f19601f82011682018060405250810190612d9291906133c1565b139392505050565b600080836001600160a01b031663a7bdad03846040518263ffffffff1660e01b8152600401612dc9919061347c565b60006040518083038186803b158015612de157600080fd5b505afa158015612df5573d6000803e3d6000fd5b505050506040513d6000823e601f3d908101601f19168201604052612e1d91908101906131af565b51119392505050565b6000600160ff1b8210611b395760405162461bcd60e51b815260040161032c90613a2c565b6040518060a0016040528060006001600160a01b0316815260200160006001600160a01b0316815260200160008152602001600060ff168152602001606081525090565b828054828255906000526020600020908101928215612ee4579160200282015b82811115612ee457825182546001600160a01b0319166001600160a01b03909116178255602090920191600190910190612eaf565b50611b39929150612f1f565b6040518060a0016040528060008152602001600081526020016000815260200160008152602001600081525090565b6109c591905b80821115611b395780546001600160a01b0319168155600101612f25565b8051610afa81613cb7565b60008083601f840112612f5f578182fd5b5081356001600160401b03811115612f75578182fd5b6020830191508360208083028501011115612ab857600080fd5b600082601f830112612f9f578081fd5b81516001600160401b03811115612fb4578182fd5b612fc7601f8201601f1916602001613c46565b9150808252836020828501011115612fde57600080fd5b612fef816020840160208601613c8b565b5092915050565b805160ff81168114610afa57600080fd5b600060208284031215613018578081fd5b8135611b7b81613cb7565b600060208284031215613034578081fd5b8151611b7b81613cb7565b60008060208385031215613051578081fd5b82356001600160401b03811115613066578182fd5b61307285828601612f4e565b90969095509350505050565b60008060008060408587031215613093578182fd5b84356001600160401b03808211156130a9578384fd5b6130b588838901612f4e565b909650945060208701359150808211156130cd578384fd5b506130da87828801612f4e565b95989497509550505050565b600080600080604085870312156130fb578384fd5b84356001600160401b03808211156130a9578586fd5b60008060008060008060006080888a03121561312b578283fd5b87356001600160401b0380821115613141578485fd5b61314d8b838c01612f4e565b909950975060208a0135915080821115613165578485fd5b6131718b838c01612f4e565b909750955060408a0135915080821115613189578485fd5b506131968a828b01612f4e565b989b979a50959894979596606090950135949350505050565b600060208083850312156131c1578182fd5b82516001600160401b038111156131d6578283fd5b80840185601f8201126131e7578384fd5b805191506131fc6131f783613c6c565b613c46565b8281528381019082850185850284018601891015613218578687fd5b8693505b8484101561324357805161322f81613cb7565b83526001939093019291850191850161321c565b50979650505050505050565b60006020808385031215613261578182fd5b82516001600160401b0380821115613277578384fd5b81850186601f820112613288578485fd5b805192506132986131f784613c6c565b83815284810190828601875b86811015613340578151850160a080601f19838f030112156132c4578a8bfd5b6132cd81613c46565b6132d98e8c8501612f43565b815260406132e98f828601612f43565b828d01526060840151908201526133038e60808501612ff6565b60608201528183015189811115613318578c8dfd5b6133268f8d83870101612f8f565b6080830152508652505092870192908701906001016132a4565b50909998505050505050505050565b600060208284031215613360578081fd5b8135611b7b81613ccc565b60006020828403121561337c578081fd5b8151611b7b81613ccc565b600060208284031215613398578081fd5b81516001600160401b038111156133ad578182fd5b6133b984828501612f8f565b949350505050565b6000602082840312156133d2578081fd5b5051919050565b6000602082840312156133ea578081fd5b5035919050565b6000815180845260208085019450808401835b838110156134295781516001600160a01b031687529582019590820190600101613404565b509495945050505050565b6000815180845261344c816020860160208601613c8b565b601f01601f19169290920160200192915050565b60008251613472818460208701613c8b565b9190910192915050565b6001600160a01b0391909116815260200190565b6001600160a01b03958616815293909416602084015260408301919091526060820152608081019190915260a00190565b6001600160a01b03929092168252602082015260400190565b600060018060a01b0385168252836020830152606060408301526123226060830184613434565b600060208252611b7b60208301846133f1565b6020808252825182820181905260009190848201906040850190845b8181101561354c57835183529284019291840191600101613530565b50909695505050505050565b901515815260200190565b600060208252611b7b6020830184613434565b6020808252603e908201527f54617267657473206d757374206265206d657420616e64204554482072656d6160408201527f696e696e6720696e206f7264657220746f207261697365207461726765740000606082015260800190565b602080825260159082015274082e4e4c2f240d8cadccee8d040dad2e6dac2e8c6d605b1b604082015260600190565b6020808252601a908201527f43616c6c6572206d75737420626520454f412041646472657373000000000000604082015260600190565b60208082526028908201527f4d75737420626520612076616c696420616e6420696e697469616c697a65642060408201526729b2ba2a37b5b2b760c11b606082015260800190565b6020808252818101527f556e7265636f676e697a65642065786368616e6765206964656e746966696572604082015260600190565b6020808252601e908201527f41646472657373206e6f74207065726d697474656420746f2074726164650000604082015260600190565b6020808252601b908201527f536166654d6174683a206164646974696f6e206f766572666c6f770000000000604082015260600190565b6020808252601e908201527f4d7573742062652070656e64696e6720696e697469616c697a6174696f6e0000604082015260600190565b60208082526021908201527f574554482063616e6e6f7420626520616e20696e64657820636f6d706f6e656e6040820152601d60fa1b606082015260800190565b60208082526036908201527f4e657720616c6c6f636174696f6e206d75737420686176652074617267657420604082015275666f7220616c6c206f6c6420636f6d706f6e656e747360501b606082015260800190565b6020808252601a908201527f45786368616e6765206d75737420626520737065636966696564000000000000604082015260600190565b6020808252818101527f53616665436173743a2076616c7565206d75737420626520706f736974697665604082015260600190565b60208082526023908201527f54726164652073697a6520657863656564732074726164652073697a65206c696040820152621b5a5d60ea1b606082015260800190565b6020808252601b908201527f43616e6e6f74206475706c696361746520636f6d706f6e656e74730000000000604082015260600190565b60208082526021908201527f536166654d6174683a206d756c7469706c69636174696f6e206f766572666c6f6040820152607760f81b606082015260800190565b6020808252601590820152744d6f64756c6520616c726561647920696e2075736560581b604082015260600190565b60208082526018908201527f43616e6e6f74206475706c696361746520747261646572730000000000000000604082015260600190565b6020808252602a908201527f50617373656420636f6d706f6e656e74206e6f7420696e636c7564656420696e60408201526920726562616c616e636560b01b606082015260800190565b60208082526012908201527115185c99d95d08185b1c9958591e481b595d60721b604082015260600190565b60208082526018908201527f4172726179206c656e677468206d757374206265203e20300000000000000000604082015260600190565b60208082526028908201527f53616665436173743a2076616c756520646f65736e27742066697420696e2061604082015267371034b73a191a9b60c11b606082015260800190565b60208082526023908201527f4d75737420626520636f6e74726f6c6c65722d656e61626c656420536574546f60408201526235b2b760e91b606082015260800190565b6020808252601c908201527f4d7573742062652074686520536574546f6b656e206d616e6167657200000000604082015260600190565b6020808252818101527f436f6f6c206f666620706572696f6420686173206e6f7420656c61707365642e604082015260600190565b60208082526032908201527f4d7573742073656c6c20616c6c2073656c6c61626c6520746f6b656e73206265604082015271199bdc994818d85b8818994818d85b1b195960721b606082015260800190565b6020808252601f908201527f5265656e7472616e637947756172643a207265656e7472616e742063616c6c00604082015260600190565b6020808252600a90820152694120697320656d70747960b01b604082015260600190565b90815260200190565b918252602082015260400190565b600086825285602083015260a06040830152613c0660a08301866133f1565b6001600160a01b0394909416606083015250608001529392505050565b948552602085019390935260408401919091526060830152608082015260a00190565b6040518181016001600160401b0381118282101715613c6457600080fd5b604052919050565b60006001600160401b03821115613c81578081fd5b5060209081020190565b60005b83811015613ca6578181015183820152602001613c8e565b83811115611a625750506000910152565b6001600160a01b03811681146119ca57600080fd5b80151581146119ca57600080fdfe736d617274537761704578616374496e28616464726573732c616464726573732c75696e743235362c75696e743235362c75696e7432353629737761704578616374546f6b656e73466f72546f6b656e732875696e743235362c75696e743235362c616464726573735b5d2c616464726573732c75696e743235362973776170546f6b656e73466f724578616374546f6b656e732875696e743235362c75696e743235362c616464726573735b5d2c616464726573732c75696e7432353629736d6172745377617045786163744f757428616464726573732c616464726573732c75696e743235362c75696e743235362c75696e7432353629a26469706673582212201f3771c2534d00d6d019b65d69c706e07118326cc08cacc792ed184c6b2c92f064736f6c634300060a0033",
  "linkReferences": {},
  "deployedLinkReferences": {}
}