{
  "_format": "hh-sol-artifact-1",
  "contractName": "TradeModule",
  "sourceName": "contracts/protocol/modules/TradeModule.sol",
  "abi": [
    {
      "inputs": [
        {
          "internalType": "contract IController",
          "name": "_controller",
          "type": "address"
        }
      ],
      "stateMutability": "nonpayable",
      "type": "constructor"
    },
    {
      "anonymous": false,
      "inputs": [
        {
          "indexed": true,
          "internalType": "contract ISetToken",
          "name": "_setToken",
          "type": "address"
        },
        {
          "indexed": true,
          "internalType": "address",
          "name": "_sendToken",
          "type": "address"
        },
        {
          "indexed": true,
          "internalType": "address",
          "name": "_receiveToken",
          "type": "address"
        },
        {
          "indexed": false,
          "internalType": "contract IExchangeAdapter",
          "name": "_exchangeAdapter",
          "type": "address"
        },
        {
          "indexed": false,
          "internalType": "uint256",
          "name": "_totalSendAmount",
          "type": "uint256"
        },
        {
          "indexed": false,
          "internalType": "uint256",
          "name": "_totalReceiveAmount",
          "type": "uint256"
        },
        {
          "indexed": false,
          "internalType": "uint256",
          "name": "_protocolFee",
          "type": "uint256"
        }
      ],
      "name": "ComponentExchanged",
      "type": "event"
    },
    {
      "inputs": [],
      "name": "controller",
      "outputs": [
        {
          "internalType": "contract IController",
          "name": "",
          "type": "address"
        }
      ],
      "stateMutability": "view",
      "type": "function"
    },
    {
      "inputs": [
        {
          "internalType": "contract ISetToken",
          "name": "_setToken",
          "type": "address"
        }
      ],
      "name": "initialize",
      "outputs": [],
      "stateMutability": "nonpayable",
      "type": "function"
    },
    {
      "inputs": [],
      "name": "removeModule",
      "outputs": [],
      "stateMutability": "nonpayable",
      "type": "function"
    },
    {
      "inputs": [
        {
          "internalType": "contract ISetToken",
          "name": "_setToken",
          "type": "address"
        },
        {
          "internalType": "string",
          "name": "_exchangeName",
          "type": "string"
        },
        {
          "internalType": "address",
          "name": "_sendToken",
          "type": "address"
        },
        {
          "internalType": "uint256",
          "name": "_sendQuantity",
          "type": "uint256"
        },
        {
          "internalType": "address",
          "name": "_receiveToken",
          "type": "address"
        },
        {
          "internalType": "uint256",
          "name": "_minReceiveQuantity",
          "type": "uint256"
        },
        {
          "internalType": "bytes",
          "name": "_data",
          "type": "bytes"
        }
      ],
      "name": "trade",
      "outputs": [],
      "stateMutability": "nonpayable",
      "type": "function"
    }
  ],
  "bytecode": "0x608060405234801561001057600080fd5b50604051611edf380380611edf83398101604081905261002f91610058565b600080546001600160a01b0319166001600160a01b039290921691909117905560018055610086565b600060208284031215610069578081fd5b81516001600160a01b038116811461007f578182fd5b9392505050565b611e4a806100956000396000f3fe608060405234801561001057600080fd5b506004361061004c5760003560e01c80630a5cb52914610051578063847ef08d14610066578063c4d66de81461006e578063f77c479114610081575b600080fd5b61006461005f3660046118a0565b61009f565b005b6100646101e5565b61006461007c366004611884565b6101e7565b610089610329565b6040516100969190611994565b60405180910390f35b600260015414156100cb5760405162461bcd60e51b81526004016100c290611d0e565b60405180910390fd5b6002600155866100db8133610338565b6100f75760405162461bcd60e51b81526004016100c290611cd7565b610100816103c8565b61011c5760405162461bcd60e51b81526004016100c290611aaf565b6101246115f7565b610132898989888a896104cc565b905061013e81876106be565b6101488184610725565b6000610153826108fe565b9050600061016183836109c0565b905060008061016f856109ea565b91509150886001600160a01b03168b6001600160a01b03168e6001600160a01b03167ff26ad8d17d1f980b62e857e137d0a000ce14bcf3b2aa54e1a0c7d57cf907e1a488602001518686896040516101ca9493929190611a3f565b60405180910390a45050600180555050505050505050505050565b565b600054604051631d3af8fb60e21b815282916001600160a01b0316906374ebe3ec90610217908490600401611994565b60206040518083038186803b15801561022f57600080fd5b505afa158015610243573d6000803e3d6000fd5b505050506040513d601f19601f820116820180604052508101906102679190611831565b6102835760405162461bcd60e51b81526004016100c290611c94565b61028c81610a92565b6102a85760405162461bcd60e51b81526004016100c290611af7565b81336102b48282610338565b6102d05760405162461bcd60e51b81526004016100c290611cd7565b836001600160a01b0316630ffe0f1e6040518163ffffffff1660e01b8152600401600060405180830381600087803b15801561030b57600080fd5b505af115801561031f573d6000803e3d6000fd5b5050505050505050565b6000546001600160a01b031681565b6000816001600160a01b0316836001600160a01b031663481c6a756040518163ffffffff1660e01b815260040160206040518083038186803b15801561037d57600080fd5b505afa158015610391573d6000803e3d6000fd5b505050506040513d601f19601f820116820180604052508101906103b59190611712565b6001600160a01b03161490505b92915050565b60008054604051631d3af8fb60e21b81526001600160a01b03909116906374ebe3ec906103f9908590600401611994565b60206040518083038186803b15801561041157600080fd5b505afa158015610425573d6000803e3d6000fd5b505050506040513d601f19601f820116820180604052508101906104499190611831565b80156103c257506040516335fc6c9f60e21b81526001600160a01b0383169063d7f1b27c9061047c903090600401611994565b60206040518083038186803b15801561049457600080fd5b505afa1580156104a8573d6000803e3d6000fd5b505050506040513d601f19601f820116820180604052508101906103c29190611831565b6104d46115f7565b6104dc6115f7565b6001600160a01b03881681526104f187610ac1565b6001600160a01b03908116602080840191909152878216604080850191909152878316606085015280516318160ddd60e01b81529051928b16926318160ddd92600480840193919291829003018186803b15801561054e57600080fd5b505afa158015610562573d6000803e3d6000fd5b505050506040513d601f19601f820116820180604052508101906105869190611950565b608082018190526105979085610ad8565b60a082015260808101516105ab9084610ad8565b60c08201526040516370a0823160e01b81526001600160a01b038716906370a08231906105dc908b90600401611994565b60206040518083038186803b1580156105f457600080fd5b505afa158015610608573d6000803e3d6000fd5b505050506040513d601f19601f8201168201806040525081019061062c9190611950565b60e08201526040516370a0823160e01b81526001600160a01b038616906370a082319061065d908b90600401611994565b60206040518083038186803b15801561067557600080fd5b505afa158015610689573d6000803e3d6000fd5b505050506040513d601f19601f820116820180604052508101906106ad9190611950565b610100820152979650505050505050565b60008260a00151116106e25760405162461bcd60e51b81526004016100c290611d45565b60408201518251610705916001600160a01b03909116908363ffffffff610aea16565b6107215760405162461bcd60e51b81526004016100c290611c0a565b5050565b6107c0826040015183602001516001600160a01b031663334fc2896040518163ffffffff1660e01b815260040160206040518083038186803b15801561076a57600080fd5b505afa15801561077e573d6000803e3d6000fd5b505050506040513d601f19601f820116820180604052508101906107a29190611712565b60a085015185516001600160a01b031692919063ffffffff610b7b16565b600080606084602001516001600160a01b031663e171fcab8660400151876060015188600001518960a001518a60c001518a6040518763ffffffff1660e01b8152600401610813969594939291906119a8565b60006040518083038186803b15801561082b57600080fd5b505afa15801561083f573d6000803e3d6000fd5b505050506040513d6000823e601f3d908101601f19168201604052610867919081019061172e565b87516040516347b7819960e11b815293965091945092506001600160a01b031690638f6f0332906108a090869086908690600401611a0f565b600060405180830381600087803b1580156108ba57600080fd5b505af11580156108ce573d6000803e3d6000fd5b505050506040513d6000823e601f3d908101601f191682016040526108f69190810190611851565b505050505050565b60008061099a83610100015184606001516001600160a01b03166370a0823186600001516040518263ffffffff1660e01b815260040161093e9190611994565b60206040518083038186803b15801561095657600080fd5b505afa15801561096a573d6000803e3d6000fd5b505050506040513d601f19601f8201168201806040525081019061098e9190611950565b9063ffffffff610bec16565b90508260c001518110156103c25760405162461bcd60e51b81526004016100c290611a78565b6000806109ce600084610c2e565b90506109e38460000151856060015183610ccb565b9392505050565b6000806000610a1f846040015185608001518660e0015187600001516001600160a01b0316610d77909392919063ffffffff16565b505090506000610a568560600151866080015187610100015188600001516001600160a01b0316610d77909392919063ffffffff16565b505060e0860151909150610a70908363ffffffff610bec16565b610100860151610a8790839063ffffffff610bec16565b935093505050915091565b6040516353bae5f760e01b81526000906001600160a01b038316906353bae5f79061047c903090600401611994565b600080610acd83610ebd565b90506109e381610ec8565b60006109e3838363ffffffff610f8516565b6000610af582610faf565b6040516366cb8d2f60e01b81526001600160a01b038616906366cb8d2f90610b21908790600401611994565b60206040518083038186803b158015610b3957600080fd5b505afa158015610b4d573d6000803e3d6000fd5b505050506040513d601f19601f82011682018060405250810190610b719190611950565b1215949350505050565b60608282604051602401610b909291906119f6565b60408051601f198184030181529181526020820180516001600160e01b031663095ea7b360e01b179052516347b7819960e11b81529091506001600160a01b03861690638f6f0332906108a09087906000908690600401611a0f565b60006109e383836040518060400160405280601e81526020017f536166654d6174683a207375627472616374696f6e206f766572666c6f770000815250610fd8565b6000805460405163792aa04f60e01b815282916001600160a01b03169063792aa04f90610c6190309088906004016119f6565b60206040518083038186803b158015610c7957600080fd5b505afa158015610c8d573d6000803e3d6000fd5b505050506040513d601f19601f82011682018060405250810190610cb19190611950565b9050610cc3838263ffffffff610f8516565b949350505050565b8015610d7257610d72826000809054906101000a90046001600160a01b03166001600160a01b031663469048406040518163ffffffff1660e01b815260040160206040518083038186803b158015610d2257600080fd5b505afa158015610d36573d6000803e3d6000fd5b505050506040513d601f19601f82011682018060405250810190610d5a9190611712565b6001600160a01b03861691908463ffffffff61100416565b505050565b600080600080866001600160a01b03166370a08231896040518263ffffffff1660e01b8152600401610da99190611994565b60206040518083038186803b158015610dc157600080fd5b505afa158015610dd5573d6000803e3d6000fd5b505050506040513d601f19601f82011682018060405250810190610df99190611950565b90506000610e81896001600160a01b03166366cb8d2f8a6040518263ffffffff1660e01b8152600401610e2c9190611994565b60206040518083038186803b158015610e4457600080fd5b505afa158015610e58573d6000803e3d6000fd5b505050506040513d601f19601f82011682018060405250810190610e7c9190611950565b61114c565b905060008215610e9e57610e978888858561116e565b9050610ea2565b5060005b610ead8a8a836111bd565b9199909850909650945050505050565b805160209091012090565b600080548190610ee0906001600160a01b031661131d565b6001600160a01b031663e6d642c530856040518363ffffffff1660e01b8152600401610f0d9291906119f6565b60206040518083038186803b158015610f2557600080fd5b505afa158015610f39573d6000803e3d6000fd5b505050506040513d601f19601f82011682018060405250810190610f5d9190611712565b90506001600160a01b0381166103c25760405162461bcd60e51b81526004016100c290611b2e565b60006109e3670de0b6b3a7640000610fa3858563ffffffff61139c16565b9063ffffffff6113d616565b6000600160ff1b8210610fd45760405162461bcd60e51b81526004016100c290611c4c565b5090565b60008184841115610ffc5760405162461bcd60e51b81526004016100c29190611a65565b505050900390565b8015611146576040516370a0823160e01b81526000906001600160a01b038516906370a0823190611039908890600401611994565b60206040518083038186803b15801561105157600080fd5b505afa158015611065573d6000803e3d6000fd5b505050506040513d601f19601f820116820180604052508101906110899190611950565b905061109785858585611418565b6040516370a0823160e01b81526000906001600160a01b038616906370a08231906110c6908990600401611994565b60206040518083038186803b1580156110de57600080fd5b505afa1580156110f2573d6000803e3d6000fd5b505050506040513d601f19601f820116820180604052508101906111169190611950565b9050611128828463ffffffff610bec16565b81146108f65760405162461bcd60e51b81526004016100c290611bd3565b50505050565b600080821215610fd45760405162461bcd60e51b81526004016100c290611b5d565b600080611191611184848863ffffffff610f8516565b869063ffffffff610bec16565b90506111b3866111a7868463ffffffff610bec16565b9063ffffffff61148f16565b9695505050505050565b60006111c984846114ad565b9050801580156111d95750600082115b15611250576111e88484611534565b61124b576040516304e3532760e41b81526001600160a01b03851690634e35327090611218908690600401611994565b600060405180830381600087803b15801561123257600080fd5b505af1158015611246573d6000803e3d6000fd5b505050505b6112cd565b80801561125b575081155b156112cd5761126a8484611534565b6112cd57604051636f86c89760e01b81526001600160a01b03851690636f86c8979061129a908690600401611994565b600060405180830381600087803b1580156112b457600080fd5b505af11580156112c8573d6000803e3d6000fd5b505050505b836001600160a01b0316632ba57d17846112e685610faf565b6040518363ffffffff1660e01b81526004016113039291906119f6565b600060405180830381600087803b15801561030b57600080fd5b6040516373b2e76b60e11b81526000906001600160a01b0383169063e765ced69061134c908490600401611d7c565b60206040518083038186803b15801561136457600080fd5b505afa158015611378573d6000803e3d6000fd5b505050506040513d601f19601f820116820180604052508101906103c29190611712565b6000826113ab575060006103c2565b828202828482816113b857fe5b04146109e35760405162461bcd60e51b81526004016100c290611b92565b60006109e383836040518060400160405280601a81526020017f536166654d6174683a206469766973696f6e206279207a65726f0000000000008152506115c0565b801561114657606082826040516024016114339291906119f6565b60408051601f198184030181529181526020820180516001600160e01b031663a9059cbb60e01b179052516347b7819960e11b81529091506001600160a01b03861690638f6f0332906108a09087906000908690600401611a0f565b60006109e382610fa385670de0b6b3a764000063ffffffff61139c16565b600080836001600160a01b03166366cb8d2f846040518263ffffffff1660e01b81526004016114dc9190611994565b60206040518083038186803b1580156114f457600080fd5b505afa158015611508573d6000803e3d6000fd5b505050506040513d601f19601f8201168201806040525081019061152c9190611950565b139392505050565b600080836001600160a01b031663a7bdad03846040518263ffffffff1660e01b81526004016115639190611994565b60006040518083038186803b15801561157b57600080fd5b505afa15801561158f573d6000803e3d6000fd5b505050506040513d6000823e601f3d908101601f191682016040526115b79190810190611786565b51119392505050565b600081836115e15760405162461bcd60e51b81526004016100c29190611a65565b5060008385816115ed57fe5b0495945050505050565b60405180610120016040528060006001600160a01b0316815260200160006001600160a01b0316815260200160006001600160a01b0316815260200160006001600160a01b0316815260200160008152602001600081526020016000815260200160008152602001600081525090565b80516103c281611dfc565b600082601f830112611682578081fd5b813561169561169082611dac565b611d85565b91508082528360208285010111156116ac57600080fd5b8060208401602084013760009082016020015292915050565b600082601f8301126116d5578081fd5b81516116e361169082611dac565b91508082528360208285010111156116fa57600080fd5b61170b816020840160208601611dd0565b5092915050565b600060208284031215611723578081fd5b81516109e381611dfc565b600080600060608486031215611742578182fd5b835161174d81611dfc565b60208501516040860151919450925067ffffffffffffffff811115611770578182fd5b61177c868287016116c5565b9150509250925092565b60006020808385031215611798578182fd5b825167ffffffffffffffff808211156117af578384fd5b81850186601f8201126117c0578485fd5b80519250818311156117d0578485fd5b83830291506117e0848301611d85565b8381528481019082860184840187018a10156117fa578788fd5b8794505b85851015611824576118108a82611667565b8352600194909401939186019186016117fe565b5098975050505050505050565b600060208284031215611842578081fd5b815180151581146109e3578182fd5b600060208284031215611862578081fd5b815167ffffffffffffffff811115611878578182fd5b610cc3848285016116c5565b600060208284031215611895578081fd5b81356109e381611dfc565b600080600080600080600060e0888a0312156118ba578283fd5b87356118c581611dfc565b9650602088013567ffffffffffffffff808211156118e1578485fd5b6118ed8b838c01611672565b975060408a013591506118ff82611dfc565b9095506060890135945060808901359061191882611dfc565b90935060a0890135925060c08901359080821115611934578283fd5b506119418a828b01611672565b91505092959891949750929550565b600060208284031215611961578081fd5b5051919050565b60008151808452611980816020860160208601611dd0565b601f01601f19169290920160200192915050565b6001600160a01b0391909116815260200190565b6001600160a01b038781168252868116602083015285166040820152606081018490526080810183905260c060a082018190526000906119ea90830184611968565b98975050505050505050565b6001600160a01b03929092168252602082015260400190565b600060018060a01b038516825283602083015260606040830152611a366060830184611968565b95945050505050565b6001600160a01b0394909416845260208401929092526040830152606082015260800190565b6000602082526109e36020830184611968565b6020808252601d908201527f536c6970706167652067726561746572207468616e20616c6c6f776564000000604082015260600190565b60208082526028908201527f4d75737420626520612076616c696420616e6420696e697469616c697a65642060408201526729b2ba2a37b5b2b760c11b606082015260800190565b6020808252601e908201527f4d7573742062652070656e64696e6720696e697469616c697a6174696f6e0000604082015260600190565b60208082526015908201527426bab9ba103132903b30b634b21030b230b83a32b960591b604082015260600190565b6020808252818101527f53616665436173743a2076616c7565206d75737420626520706f736974697665604082015260600190565b60208082526021908201527f536166654d6174683a206d756c7469706c69636174696f6e206f766572666c6f6040820152607760f81b606082015260800190565b6020808252601d908201527f496e76616c696420706f7374207472616e736665722062616c616e6365000000604082015260600190565b60208082526022908201527f556e69742063616e742062652067726561746572207468616e206578697374696040820152616e6760f01b606082015260800190565b60208082526028908201527f53616665436173743a2076616c756520646f65736e27742066697420696e2061604082015267371034b73a191a9b60c11b606082015260800190565b60208082526023908201527f4d75737420626520636f6e74726f6c6c65722d656e61626c656420536574546f60408201526235b2b760e91b606082015260800190565b6020808252601c908201527f4d7573742062652074686520536574546f6b656e206d616e6167657200000000604082015260600190565b6020808252601f908201527f5265656e7472616e637947756172643a207265656e7472616e742063616c6c00604082015260600190565b6020808252601d908201527f546f6b656e20746f2073656c6c206d757374206265206e6f6e7a65726f000000604082015260600190565b90815260200190565b60405181810167ffffffffffffffff81118282101715611da457600080fd5b604052919050565b600067ffffffffffffffff821115611dc2578081fd5b50601f01601f191660200190565b60005b83811015611deb578181015183820152602001611dd3565b838111156111465750506000910152565b6001600160a01b0381168114611e1157600080fd5b5056fea2646970667358221220f70cdab4277218f44466f03b3c428b91397af669b7e6aa537590753a2b13af9264736f6c634300060a0033",
  "linkReferences": {},
  "deployedLinkReferences": {}
}